:020000040800F2
:10000000484900209D010008170200080F0200085F
:100010001302000809020008950300080000000010
:1000200000000000000000000000000005010008C2
:100030000D0200080000000049010008010300084B
:10004000B7010008B7010008B7010008B7010008B0
:10005000B7010008B7010008B7010008B7010008A0
:10006000B7010008B7010008B7010008B701000890
:10007000B7010008B7010008B7010008B701000880
:10008000B7010008B7010008B7010008B701000870
:10009000B7010008B7010008B7010008B701000860
:1000A000B7010008B7010008B7010008B701000850
:1000B000B7010008B7010008B7010008B701000840
:1000C000B7010008B7010008B7010008B701000830
:1000D000B7010008B7010008B7010008B701000820
:1000E000B7010008B7010008B7010008DFF810D019
:1000F00000F078F800480047B9030008AFF300802B
:1001000048490020224B19680868B0E8F00F80F3D6
:100110000988BFF36F8F4FF0000080F311884EF015
:100120000D0E70470000000006480068006880F36C
:10013000088862B661B6BFF34F8FBFF36F8F00DFE1
:1001400000BF00BF08ED00E0EFF30980BFF36F8F41
:100150000F4B1A6820E9F00F106008B54FF0BF0090
:1001600080F31188BFF34F8FBFF36F8F00F05EFCF9
:100170004FF0000080F31188BDE808401968086856
:10018000B0E8F00F80F30988BFF36F8F704700BFAE
:1001900014000020EFF305807047000006488047F8
:1001A00006480047FEE7FEE7FEE7FEE7FEE7FEE75C
:1001B000FEE7FEE7FEE7FEE735030008ED00000876
:1001C000D2B201E000F8012B491EFBD27047002299
:1001D000F6E710B513460A4604461946FFF7F0FF46
:1001E000204610BD064C074D06E0E06840F00103D4
:1001F00094E8070098471034AC42F6D3FFF77AFF33
:10020000140E0008340E000800BFFEE7704700BF60
:10021000FEE700BFFEE7704710B500F001F810BD23
:100220000CB50020019000903348006840F4803005
:100230003149086000BF3048006800F40030009089
:100240000198401C0190009818B90198B0F5A06F72
:10025000F1D12948006800F4003010B1012000906D
:1002600001E0002000900098012843D12348006855
:1002700040F01000214908600846006820F007009F
:1002800008600846006840F0020008601A484068AC
:10029000194948600846406848600846406840F48C
:1002A000806048600846406820F47C10486008463A
:1002B000406840F4E81048600846006840F08070EC
:1002C000086000BF0C48006800F000700028F9D0FA
:1002D0000948406820F00300074948600846406824
:1002E00040F00200486000BF0348406800F00C0086
:1002F0000828F9D10CBD0000001002400020024087
:1003000010B500BFBF2080F31188BFF34F8FBFF33C
:100310006F8F00BF00F008FC18B14FF08050044907
:10032000086000BF002080F3118800BF10BD0000EE
:1003300004ED00E010B51348006840F001001149D9
:10034000086008464068104908400E494860084661
:1003500000680E4908400B4908600846006820F410
:10036000802008600846406820F4FE0048604FF492
:100370001F008860FFF750FF4FF0006004490860DD
:1003800010BD0000001002400000FFF8FFFFF6FE65
:1003900008ED00E000BFFEE702E008C8121F08C138
:1003A000002AFAD170477047002001E001C1121FF6
:1003B000002AFBD1704700001CB5002001210BA3CF
:1003C0000A22CDE900100EA10F4800F079FB0020B1
:1003D000012106A30A22CDE900100CA10D4800F06E
:1003E0006FFB00F0E5FA00BFFEE700005461736B9D
:1003F00020312069732052756E6E696E67000000AF
:100400007461736B310000008D0800087461736BB8
:1004100032000000A508000810B5044600F072FA8A
:100420002F480068401C2E4908602E48006840B9DB
:100430002C4804600846006801280DD100F016F928
:100440000AE02948006838B926480068C06AE16AAD
:10045000884201D82348046024480068401C23498E
:10046000086094F82C10012088402149096808434D
:100470001F490860E16A01EB81011E4A02EB81011C
:100480004868A0608268E260211D826851608160D6
:10049000E16A01EB8101174A02EB81026261E16AC4
:1004A00001EB8101134A52F82110491CE26A02EB68
:1004B0008202104B43F8221000F036FA0A48006816
:1004C00068B108480068C06AE16A884207D24FF004
:1004D000805009490860BFF34F8FBFF36F8F10BD85
:1004E00024000020140000203000002040000020E4
:1004F0002C0000207C00002004ED00E010B516E088
:1005000000F000FA0C48C068C468201D00F0D6F95D
:100510000A480068401E0949086009480068401EF2
:100520000749086000F000FA204600F00BF8044884
:1005300000680028E4D110BD1C0100202400002028
:100540002000002010B50446206B00F0FDF9204685
:1005500000F0FAF910BD000030B54FF4884315489B
:1005600000F007042CB1C01D20F00700114C041B43
:100570001B1B0246104C226000240F4D6C60D018EB
:10058000083820F007000D4C206000240B4D2D682A
:100590006C600A4D2D682C601146441A4C60074C63
:1005A00024680C60064D4C682C60064D4C682C602D
:1005B00030BD000044010020540000205C000020F9
:1005C000640000206000002000BFFFF797FF06488E
:1005D00000680128F9D94FF0805004490860BFF342
:1005E0004F8FBFF36F8FF0E77C00002004ED00E039
:1005F0002DE9FF5F80460E469146DDE90E7A109C9C
:10060000A9F10100216B01EB800B2BF0070B7EB1F0
:10061000002507E0715D04F134004155705D00B9BB
:1006200002E06D1C102DF5D300BF002143200155C1
:10063000052F00D30427E762201D00F060F904F1C4
:10064000180000F05CF92461C7F10500A061646244
:1006500041465846039A00F007F92060BAF1000FAE
:1006600001D0CAF80040BDE8FF9F000010B500248B
:1006700007E004EB84010F4A02EB810000F032F93D
:10068000641C052CF5D30C4800F02CF90B4800F045
:1006900029F90B4800F026F90A4800F023F90A4826
:1006A00000F020F904480949086004480849086036
:1006B00010BD00007C000020E0000020F4000020BD
:1006C000080100201C01002030010020180000203B
:1006D0001C00002010B50146164800E000680368C1
:1006E0008B42FBD30246436813448B4204D14368D8
:1006F0004C682344436001460A464B68134404682F
:10070000A34211D10C4C03682468A34208D04B6863
:100710000468646823444B6003681B680B6005E051
:10072000054B1B680B6001E003680B60884200D03A
:10073000016010BD540000205C00002009480068E2
:10074000006808B9012000E0002020B14FF0FF3020
:100750000549086005E003480068C0680068024970
:1007600008607047180000204400002000BFBF2030
:1007700080F31188BFF34F8FBFF36F8F00BF00BFAF
:10078000FEE700002DE9F04705464FF0000900F0B4
:1007900045F93048006808B9FFF7DEFE75B105F08D
:1007A0000700C0F11008C8F1FF30A84201D20120B3
:1007B00000E0002008B9454400E00025012000EBDE
:1007C000E570002841D0002D3FD0234800688542C5
:1007D0003BD8224E3046046801E026462468606813
:1007E000A84202D220680028F7D11A480068844243
:1007F0002BD0306800F10809206830606068401B29
:10080000102807D967196068401B78606560384612
:10081000FFF760FF104960680968081A0E49086010
:10082000084600680E490968884203D20A480068F1
:100830000B490860606840F0004060600020206064
:1008400008480068401C0749086000F035FA48462F
:10085000BDE8F0875C00002060000020540000200C
:100860006400002068000020001F4FF080730360C8
:10087000001F21F001030360001F034B03601438C5
:1008800002602038704700006D07000805E0012075
:1008900002490860002002490860F8E7740000205F
:1008A0007800002005E0002002490860012002498C
:1008B0000860F8E7740000207800002001460A690B
:1008C000D1E901309860D1E901035860506888424D
:1008D00001D188685060002008611068401E1060D7
:1008E0001068704700F1080141604FF0FF318160EE
:1008F00000F10801C1600161002101607047002121
:100900000161704700BFBF2080F31188BFF34F8F94
:10091000BFF36F8F00BF03480068401C01490860A7
:10092000704700007000002006480068401E05491E
:1009300008600846006820B9002080F3118800BFD5
:1009400000BF70477000002070B506463546E6B11E
:10095000083D2C466068C00FB8B12068A8B960682F
:1009600020F00040606000F059F8084960680968AC
:100970000844064908602046FFF7ACFE04480068BA
:10098000401C0349086000F097F970BD600000202A
:100990006C00002000204FF0E021086188610348CE
:1009A0000068401E48610720086170470000002071
:1009B0001CB5124800210B468022CDE9001010A181
:1009C000114800F07DF80446012C14D100BFBF206F
:1009D00080F31188BFF34F8FBFF36F8F00BF4FF0CD
:1009E000FF300A49086001200949086000200949D0
:1009F000086000F04BF8084800681CBD4800002063
:100A000049444C4500000000C9050008440000208E
:100A100030000020280000204C0000200248006820
:100A2000401C0149086070475000002012480068CF
:100A300018B10120114908601DE000200F4908602D
:100A40000F480068B0FA80F0C0F11F0101EB81028D
:100A50000C4B03EB820042685268426000F10802CE
:100A60004368934202D14268526842604268D26849
:100A7000054B1A6000BF704750000020380000206E
:100A80002C0000207C0000201400002010B50A4833
:100A9000006840F47F00084908600846006840F09C
:100AA0007F400860FFF776FF002004490860FFF7E9
:100AB0003BFB002010BD000020ED00E07000002096
:100AC0002DE9FF4F85B0804689461746DDE912AB18
:100AD000B800FFF757FE064676B14C20FFF752FEEE
:100AE00004462CB14C212046FFF771FB266304E03D
:100AF0003046FFF729FF00E000247CB10020CDE95B
:100B000000ABCDE902403A4649464046089BFFF714
:100B10006FFD2046FFF780FC012501E04FF0FF3517
:100B2000284609B0BDE8F08F2DE9F041002757486D
:100B3000006800287ED156480068451C544805606E
:100B40008DB95448D0F80080534800685149086076
:100B50005148C0F8008051480068401C4F49086067
:100B6000FFF7ECFD00BF4E480068854276D300BF1A
:100B700048480068006808B9012000E0002020B162
:100B80004FF0FF304649086067E042480068C0689F
:100B9000C4686668B54202D2414806605DE060699B
:100BA000D4E902128A60D4E902214A60211D426818
:100BB0008A4201D1E1684160002262610168491EF8
:100BC0000160A06A98B1A06AD4E907128A60D4E9EA
:100BD00007214A6004F1180142688A4201D1216A62
:100BE00041600022A2620168491E016000BF94F8C2
:100BF0002C10012088402B490968084329490860C6
:100C0000E16A01EB8101284A02EB81014868A0609A
:100C10008268E260211D826851608160E16A01EBB7
:100C20008101214A02EB81026261E16A01EB8101EB
:100C30001D4A00E022E052F82110491CE26A02EB52
:100C40008202194B43F822101849E06A0968C96A00
:100C500088428DD901278BE700E000BF1348006868
:100C6000C06A00EB8000104951F82000012800D92B
:100C700001270F48006800B1012704E00D48006813
:100C8000401C0C4908603846BDE8F0815000002047
:100C900028000020180000201C0000203C0000203C
:100CA000440000202C0000207C00002014000020C4
:100CB000380000203400002070B500240026FFF723
:100CC00021FE4B480068401E4949086008460068FC
:100CD00000287DD147480068002879D05BE046486D
:100CE000C068C468A06AD4E907128A60D4E9072101
:100CF0004A6004F1180142688A4201D1216A4160C8
:100D00000022A2620168491E01606069D4E90212F2
:100D10008A60D4E902214A60211D42688A4201D1D9
:100D2000E1684160002262610168491E016094F837
:100D30002C10012088403149096808432F49086078
:100D4000E16A01EB81012E4A02EB81014868A06053
:100D50008268E260211D826851608160E16A01EB76
:100D60008101274A02EB81026261E16A01EB8101A4
:100D7000234A52F82110491CE26A02EB8202204BFE
:100D800043F822101F49E06A0968C96A884202D301
:100D900001201D4908601848006808B9012000E0DA
:100DA000002000289BD00CB1FFF7C8FC174805684D
:100DB00065B100BFFFF7B8FE10B10120124908600D
:100DC0006D1E002DF6D10020104908600E4800E08D
:100DD00009E0006838B1012630070D490860BFF30B
:100DE0004F8FBFF36F8FFFF79FFD304670BD000040
:100DF0005000002024000020080100202C000020CA
:100E00007C00002014000020380000203400002066
:100E100004ED00E0340E0008000000207C0000001B
:100E200098030008B00E00087C000020CC480000A9
:100E3000A803000800A24A0400000000000000000F
:100E4000010203040607080900000000000000007A
:100E50000000000000000000000000000000000092
:100E60000000000000000000000000000000000082
:100E70000000000000000000000000000000000072
:100E8000040000000000000000000000000000005E
:100E90000000000000000000000000000000000052
:100EA00000000000AAAAAAAA00000000000000009A
:04000005080000ED02
:00000001FF
