:0A0D150012000000FFFFFFFFFFFFC8
:100330007879E6FF14B40C00400302046690034B86
:1003400075F003A4C58325F0C5837302036F020310
:100350007502039F0203C90203E1020403020403BE
:1003600002040902042802043D0204660204551234
:100370000C980203FB787AE6FF7B007A00797B1207
:100380000A918F22EF6014787AE6FF7B007A007979
:100390007B120A918F22EF600280687879803E7B21
:1003A000007A00797B1208938F22EF6002805478E4
:1003B000977C007D007B007A00797B7E007F0412B1
:1003C000028A787976050204517B007A00799712C7
:1003D000080B8F22EF7879600476018074760380B1
:1003E00070787AE6FF787CE6FD752800752900753F
:1003F0002A977BFF7A0D79191207818F22787976F7
:1004000001804E787976018048787AE6FF7B007A21
:1004100000797B120A228F22EF787970047611809E
:10042000027601787AA62222787AE6FF7B007A00AB
:10043000797B12057D8F22787976018014787AE6AF
:10044000FF08E6FD7B007A00797C120467787976F4
:100450000108A62222787AE6FF08E6FD1206EF7868
:07046000797601E408F622A1
:100AF5007580FF7590FF75B0FFC2AD75C804758729
:100B050080759870758921758DFA858D8BD28E7556
:100B15008C60758A60C28CC2A9C2ABD2AFD2A8D292
:100B250088C2CAD2ACC200D2A0120C5A120D1F1232
:100B35000CF77F41120C08C2A07F0A7E00120CD56B
:0C0B4500D2A07F0A7E00120CD5C2A022B4
:030023000209A12E
:1009A100C0E0C0D075D008E4FDFC30983DAE99C2DE
:1009B10098FFEFC39E502920980E0DBD00010CD366
:1009C100ED94E8EC940340EFC3ED94E8EC9403500C
:1009D1000F74792FF8A699C2987C007D000F80D200
:1009E100EF6E7038C29CD200803220982F30992C43
:1009F100C2997879E6FE7F00EE2401FDE433FCEF35
:100A0100C39DEC6480F8748098500F74792FF8E6D8
:100A1100F5993099FDC2990F80DED29CD0D0D0E0FB
:010A210032A2
:10065000120AF53000FDC2007879E6640B701B08C1
:10066000E608F678797601E408F6D299D2A008E691
:10067000FF7E00120CD5C2A080D97879E6640D7097
:100680006608E6B40700503990068FF828287302F0
:1006900006A40206A60206AB0206B00206B50206D2
:1006A000B70206BC801B7521FC80197521FD8014E2
:1006B0007521FE800F80007521FF8008E4F5218000
:1006C000037521FA78797601E408F6D2997F05FE60
:1006D000120CD5C28E85218D858D8B7F027E0012F6
:0F06E0000CD5D28E020653120330D29902065364
:100A91008F238B248A2589261200037D077F0D125F
:100AA1000BB17D037F14120015852329754401754F
:100AB1004500754600754729754800754900754A16
:100AC100277A00792912003FEFFD3395E04D70211F
:100AD100E528641045277019AB24AA25A926E52924
:100AE1001202DDAB24AA25A926900001E52A020203
:040AF100EF7FFE2273
:100893008B238A248925E4F527120003E4FD7F0DC9
:1008A300120BB17D807F0E120007752A93752B20E2
:1008B30075440275450075460075472A75480075ED
:1008C3004900754A287B007A00792A7F0C1200437D
:1008D3008F26EF3395E04F7034FFEFC39404748099
:1008E3009480501D742A2FF8E6AB23AA24A9258FE0
:1008F300827583001202EF742A2FF8E662270F80B5
:10090300D9742A2FF8E6652760037526FE7D807F5C
:070913000E120015AF2622B1
:10080B008B238A248925752893752970E4F52EFF8F
:10081B00EFC39404748094805022AB23AA24A9259F
:10082B008F827583001202B0FE742A2FF8A6068FF2
:10083B00827583001202B0622E0F80D4753F007553
:10084B00400075412F7B007A0079287D0712092B18
:10085B0012000375440975450075460075472875E8
:10086B004800754900754A267B007A0079287F0C71
:10087B00120043EFFD3395E04D700AE527641845F0
:08088B00267002FF227FFE220D
:100781008B258A2689278F2E8D2FE4FFEFC39406B0
:10079100748094805018AB25AA26A9278F8275836F
:1007A100001202B0FE74302FF8A6060F80DEE4FFBF
:1007B100EFC39406748094805018AB28AA29A92A03
:1007C1008F827583001202B0FE74362FF8A6060FD1
:1007D10080DE75440C75450075460075472E7548D9
:1007E10000754900754A2C7B007A00792E7F0E1224
:1007F10000438F2BEF3395E04F70097F08120B57A1
:0A080100EF20E303752BFEAF2B225E
:100A22008B238A2489257528308F29753F007540CC
:100A32000075412A7A007928120927754404754500
:100A420000754600754728754800754900754A26A5
:100A52007B007A0079287F0C120043EFFD3395E08A
:100A62004D7029E527649045267021FEEEC394104F
:100A720074809480501874282EF8E6AB23AA24A917
:0F0A8200258E827583001202EF0E80E07FFE2228
:10057D008B238A2489257528A08F29753F00754006
:10058D000075412A7B007A0079287D0212092B75AE
:10059D004404754500754600754728754800754932
:1005AD0000754A267B007A0079287F0C120043EFF4
:1005BD00FD3395E04D7010E527640445267008E580
:1005CD0028540F640A60027FFEEFFD3395E04D70F5
:1005DD0071FEEEC39410748094805018AB23AA243E
:1005ED00A9258E827583001202B0FD74282EF8A6FF
:1005FD00050E80DE753F007540007541387B007A31
:10060D000079287D1012092B754412754500754629
:10061D0000754728754800754900754A267B007A94
:10062D000079287F0C120043EFFD3395E04D7010DB
:10063D00E527640445267008E528540F640A600216
:03064D007FFE220B
:100C9800752650E4F527F53F754000754128FB7A25
:100CA8000079267D0212092B7544047545007546A6
:100CB80000754726754800754900754A247B007AF7
:0D0CC8000079267F0C1200438F237F00224D
:10091A00753F007540007541287A0079267B007D75
:01092A0002CA
:10092B008B3B8A3C893D8D3E7D047F05120007126F
:10093B000BAD7D807F0A120015E4F542E542C395AD
:10094B003E5019AB3BAA3CA93D85428275830012F0
:10095B0002B0FD7F09120BB1054280E07D037F01E0
:10096B00120BB17542FF7F05120B571542E5426022
:10097B0004EF30E2F17F22120B57AB3FAA40A941A3
:10098B00EF1202DD7F21120B57AB3FAA40A941901A
:06099B000001EF0202EF73
:100C5A00D29400C29400D294007D0F7F01120BB18E
:100C6A00007D3D7F11120BB17D1E7F2D120BB1E469
:100C7A00FD7F2C120BB17D8D7F2A120BB17D3E7F39
:0E0C8A002B120BB17D407F15120BB17F0022A3
:100C0800EF644170471200037D3D7F11120BB17DE7
:100C1800867F17120BB17D847F18120BB17D7F7F01
:100C280026120BB17D1E7F2D120BB1E4FD7F2C1215
:100C38000BB17D8D7F2A120BB17D3E7F2B120BB13C
:100C48007F017E00120CD5120CF780037FFF227FF4
:020C5800002278
:060B5100AC07AB05E4FE59
:100B5700E4FEC291C292EF25E0547E4480FF7D08F7
:100B6700EDD39400748094804018EF5480648070B3
:100B770003D38001C39290D291EF25E0FFC2911D6C
:100B870080DE7D08EDD39400748094804011D2916B
:100B9700EE25E0FEA293E4334206C2911D80E5D222
:060BA70092D291AF06227C
:040BAD00E4FD7F01E3
:100BB100C291C292EF25E0547EFF7E08EED39400ED
:100BC100748094804018EF548064807003D3800156
:100BD100C39290D291EF25E0FFC2911E80DE7E0884
:100BE100EED39400748094804018ED54806480703A
:100BF10003D38001C39290D291ED25E0FDC2911EF5
:070C010080DED292D29122A5
:0D001500120B51AE07AF04EB4EFD020BB114
:040003007D087F08ED
:0E000700120B51AE07AF04EBF45EFD020BB11D
:100026007544047545007546007547267548007584
:0D0036004900754A247A0079267B007F0C72
:100043008F408B418A428943754BFEE4F54CF54D55
:10005300E54024F4600C24FE700E754C12754D10AF
:100063008006754C77754D30E54C4480FD7F021258
:100073000BB17D807F04120007120BAD7D807F0AD8
:10008300120015E4F54FF550C3E5509544E54F9440
:1000930000501FAB41AA42A943855082854F83126A
:1000A30002B0FD7F09120BB10550E55070DA054F20
:1000B30080D6AD407F01120BB1E540640C70077D23
:1000C300807F0D120015754F077550D07F04120BFA
:1000D300578F4EE55015507002154FE550454F6050
:1000E30009E54E20E004554D60E27D807F0D12004E
:1000F30007E550454F70030201AD7F06120B57EF22
:10010300541B60030201AAF54BE54E554C30E00346
:10011300754BFFE540640C60030201AD7F0A120BCF
:10012300578F4E7F0C120B57EF5407FD6021E54E9E
:1001330024FFFFE434FFFEEF7803C333CE33CED87E
:10014300F97C002DFFEC3EAB48AA49A94A800FE594
:100153004E75F008A4FFAB48AA49A94AE5F08FF011
:10016300120311E54E7003754E01D3E54E941274DC
:100173008094804003754E12E4F54FF550C3E5506B
:10018300954EE54F940050227F09120B57AB45AAB9
:1001930046A947855082854F83EF1202EF0550E54C
:1001A3005070DA054F80D6754BFE7D807F0C1200B0
:0701B30015120BADAF4B224A
:100CF7007F14120B57EF540370077D037F14120004
:020D07001522B3
:070D1F007D037F14020007B1
:100467008D238B248A2589268F2985232A753F008A
:1004770075400075412B7B007A0079297D021209AE
:100487002B75440475450075460075472975480066
:10049700754900754A277B007A0079297F0C12007D
:1004A70043EFFD3395E04D7010E528640445277050
:1004B70008E529540F640A60027FFEEFFD3395E0DB
:1004C7004D705878297C00FDAB24AA25A926FE7F0C
:1004D7000412028A753F0075400075412D7B007A32
:1004E7000079297D0412092BE4F527F528754406C0
:1004F700F545754600754729F548754900754A273A
:10050700FB7A0079297F0C120043EFFD3395E0FC5D
:10051700ED64FE7002ECF46002E4FFEFFD3395E05A
:100527004D70527529B085232AF53F7540007541F6
:100537002BFB7A0079297D0212092B754404754536
:1005470000754600754729754800754900754A27A3
:100557007B007A0079297F0C120043EFFD3395E089
:100567004D7010E528640445277008E529540F6489
:060577000A60027FFE2273
:1006EF008D237526C28F2712091A120026EFFD33AC
:1006FF0095E04D7010E525640445247008E52654F7
:10070F000F640A60027FFEEFFD3395E04D7031F507
:10071F0026F527F528F529F53F75400075412AFB89
:10072F007A0079267D0412092B754406120029EFF1
:10073F00FD3395E0FCED64FE7002ECF46002E4FF23
:10074F00EFFD3395E04D60037FFE227526B08523C4
:10075F002712091A120026EFFD3395E04D7010E5B0
:10076F0025640445247008E526540F640A60027F4F
:02077F00FE2258
:100CD50075CBDC75CA0075CDDC75CC00D2CAEF1FAB
:100CE500AC0670011E4C600730CFFDC2CF80EFC24D
:020CF500CA2211
:03000000020D09E5
:0C0D0900787FE4F6D8FD75819A02065050
:1001BA00E709F608DFFA8046E709F208DFFA803E27
:1001CA0088828C83E709F0A3DFFA8032E309F60814
:1001DA00DFFA8078E309F208DFFA807088828C837C
:1001EA00E309F0A3DFFA806489828A83E0A3F60830
:1001FA00DFFA805889828A83E0A3F208DFFA804C0A
:10020A0080D280FA80C680D4806980F280338010E0
:10021A0080A680EA809A80A880DA80E280CA803349
:10022A0089828A83ECFAE493A3C8C582C8CCC583C1
:10023A00CCF0A3C8C582C8CCC583CCDFE9DEE78091
:10024A000D89828A83E493A3F608DFF9ECFAA9F010
:10025A00EDFB2289828A83ECFAE0A3C8C582C8CC66
:10026A00C583CCF0A3C8C582C8CCC583CCDFEADE7F
:10027A00E880DB89828A83E493A3F208DFF980CCE1
:10028A0088F0EF60010E4E60C388F0ED2402B404DA
:10029A000050B9F582EB2402B4040050AF23234581
:0602AA00822390020A739A
:1002B000BB010CE58229F582E5833AF583E0225003
:1002C00006E92582F8E622BBFE06E92582F8E2224D
:0D02D000E58229F582E5833AF583E4932267
:1002DD00BB010689828A83F0225002F722BBFE0100
:0202ED00F322FA
:1002EF00F8BB010DE58229F582E5833AF583E8F045
:1002FF00225006E92582C8F622BBFE05E92582C8F1
:02030F00F222D8
:10031100BB010A89828A83F0E5F0A3F0225006F737
:0F03210009A7F01922BBFE06F3E5F009F3192234
:00000001FF
