:020000040800F2
:10000000B0040020050100085D0400085504000844
:10001000590400084D010008C10A00080000000052
:100020000000000000000000000000004106000881
:100030003D030008000000002B0500082D07000804
:100040001F0100081F0100081F0100081F01000810
:100050001F0100081F0100081F0100081F01000800
:100060001F0100081F0100081F0100081F010008F0
:100070001F0100081F0100081F0100081F010008E0
:100080001F0100081F0100081F0100081F010008D0
:100090001F0100081F0100081F0100081F010008C0
:1000A0001F0100081F0100081F0100081F010008B0
:1000B0001F0100081F0100081F0100081F010008A0
:1000C0001F0100081F0100081F0100081F01000890
:1000D0001F010008C50800081F0100081F010008D3
:1000E0001F0100081F0100081F010008DFF810D0E1
:1000F00000F01AF800480047650B0008AFF30080D5
:10010000B00400200648804706480047FEE7FEE7A7
:10011000FEE7FEE7FEE7FEE7FEE7FEE7FEE7FEE7B7
:1001200035070008ED000008064C074D06E0E068C2
:1001300040F0010394E8070098471034AC42F6D32E
:10014000FFF7D8FF4C0C00086C0C000800BFFEE75E
:1001500000F0805111B10349086001E00249486094
:1001600070470000040402400000024021B1026810
:1001700042F00102026004E002684FF6FE731A408A
:100180000260704701684FF6FE7211400160002165
:10019000016041608160C1604B49884208D14A4991
:1001A0000839496841F00F01474A083A51608AE02E
:1001B00045491431884208D143490839496841F01A
:1001C000F001414A083A51607DE03F4928318842B8
:1001D00008D13D490839496841F470613A4A083A02
:1001E000516070E038493C31884208D136490839BD
:1001F000496841F47041344A083A516063E0324939
:100200005031884208D130490839496841F4702199
:100210002D4A083A516056E02B496431884208D192
:1002200029490839496841F47001274A083A516060
:1002300049E025497831884208D12349083949687D
:1002400041F07061204A083A51603CE01F49884201
:1002500006D1011F096841F00F01021F116032E051
:100260001A491431884208D11849091F096841F018
:10027000F001164A121F116025E014492831884206
:1002800008D11249091F096841F470610F4A121F11
:10029000116018E00D493C31884208D10B49091F13
:1002A000096841F47041094A121F11600BE00749C7
:1002B0005031884207D10549091F096841F470216E
:1002C000024A121F116070470800024008040240F1
:1002D00001460020002201F0805313B1054B1A683B
:1002E00001E0054B1A6802EA01030BB1012000E0AE
:1002F00000207047000402400000024010B50022B8
:10030000026847F6F0739A430C6A8B6823430C69C2
:1003100023434C6923438C692343CC6923434C6AB0
:1003200023438C6A23431A430260CB6843600B6803
:1003300083604B68C36010BD4160704770472DE912
:10034000F04102460025002600200023002400275B
:1003500091F803C00CF00F0591F803C00CF0100CDD
:10036000BCF1000F03D091F802C04CEA050591F8EA
:1003700000C0BCF1000F31D0146800202BE04FF01A
:10038000010C0CFA00F3B1F800C00CEA03069E421F
:1003900020D183004FF00F0C0CFA03F7BC4305FA91
:1003A00003FC4CEA040491F803C0BCF1280F06D109
:1003B0004FF0010C0CFA00FCC2F814C00AE091F8EE
:1003C00003C0BCF1480F05D14FF0010C0CFA00FC42
:1003D000C2F810C0401C0828D1D31460B1F800C086
:1003E000BCF1FF0F34DD546800202EE000F1080C52
:1003F0004FF0010808FA0CF3B1F800C00CEA03064C
:100400009E4221D183004FF00F0C0CFA03F7BC433E
:1004100005FA03FC4CEA040491F803C0BCF1280F70
:1004200005D100F1080C08FA0CF8C2F8148091F814
:1004300003C0BCF1480F07D100F1080C4FF00108D0
:1004400008FA0CF8C2F81080401C0828CED354607B
:10045000BDE8F08100BFFEE700BFFEE77047000087
:1004600070B5002100230F22C47804B3154C246812
:1004700004F4E064C4F5E064210AC1F10403CA4055
:10048000447804FA03F184781440214309010E4CA6
:100490000678A155047804F01F050124AC400578C6
:1004A0006D11AD0005F1E025C5F8004109E00478C3
:1004B00004F01F050124AC40044D0678761145F880
:1004C000264070BD0CED00E000E400E080E100E0BB
:1004D00002490143024A1160704700000000FA051A
:1004E0000CED00E010B5002807DA0A07140E054AE3
:1004F00000F00F031B1FD45403E00A07130E024A37
:10050000135410BD18ED00E000E400E008B525200C
:100510008DF8000001208DF801008DF802008DF8A3
:1005200003006846FFF79CFF08BD704729B1064AE3
:1005300052690243044B5A6104E0034A5269824300
:10054000014B5A61704700000010024029B1064A71
:1005500092690243044B9A6104E0034A9269824320
:10056000014B9A61704700000010024030B5002135
:100570000022002400232D4D6D6805F00C0121B1EF
:10058000042905D0082923D105E0294D056022E082
:10059000274D05601FE0254D6D6805F47012234D51
:1005A0006D6805F48034022505EB92421CB9214D9B
:1005B000554305600BE01D4D6D6805F400351DB118
:1005C0001C4D5543056002E0194D5543056002E09E
:1005D000174D056000BF00BF144D6D6805F0F001B8
:1005E0000909154D6B5C0568DD4045600F4D6D6870
:1005F00005F4E061090A104D6B5C4568DD408560DB
:100600000A4D6D6805F46051C90A0B4D6B5C456875
:10061000DD40C560054D6D6805F44041890B074D0F
:100620006B5CC568B5FBF3F5056130BD0010024099
:1006300000127A0000093D00140000202400002070
:10064000704710B500F002F810BD00000CB5002096
:10065000019000903348006840F4803031490860D0
:1006600000BF3048006800F4003000900198401C42
:100670000190009818B90198B0F5A06FF1D1294800
:10068000006800F4003010B10120009001E000206B
:1006900000900098012843D12348006840F01000E2
:1006A000214908600846006820F0070008600846F5
:1006B000006840F0020008601A4840681949486024
:1006C0000846406848600846406840F480604860DA
:1006D0000846406820F47C1048600846406840F4B2
:1006E000E81048600846006840F08070086000BF6D
:1006F0000C48006800F000700028F9D009484068F4
:1007000020F00300074948600846406840F00200B6
:10071000486000BF0348406800F00C000828F9D189
:100720000CBD0000001002400020024010B500F097
:10073000FBF910BD10B51348006840F001001149E5
:10074000086008464068104908400E49486008465D
:1007500000680E4908400B4908600846006820F40C
:10076000802008600846406820F4FE0048604FF48E
:100770001F008860FFF765FF4FF0006004490860C4
:1007800010BD0000001002400000FFF8FFFFF6FE61
:1007900008ED00E01FB501218803FFF7D7FE4FF4F5
:1007A000E13000900020ADF80400ADF80600ADF88F
:1007B0000800ADF80C000C20ADF80A0069460948A5
:1007C00000F00EF901228021064800F0A4F8012271
:1007D00040F22551034800F0DEF80121014800F005
:1007E0008EF81FBD0038014000B58BB001210846CE
:1007F000FFF79CFE1048FFF7C5FC1048009010481A
:10080000019010200290802003900020049080200E
:10081000059000200690079008904FF40050099032
:1008200000200A9069460448FFF768FD002102484D
:10083000FFF79CFC0BB000BD4400024004380140AF
:100840002800002008B501210420FFF77FFE0121C8
:100850000846FFF77BFE4FF40070ADF8000018204B
:100860008DF8030003208DF8020069460748FFF762
:1008700066FD4FF48060ADF8000004208DF80300A1
:1008800069460248FFF75BFD08BD00000008014013
:1008900010B5FFF7D7FFFFF739FEFFF7A5FFFFF70A
:1008A00079FF10BD10B504462146054800F004F953
:1008B00000BF8021024800F037F80028F9D010BDB1
:1008C0000038014010B540F22551044800F039F8D5
:1008D00040F22551014800F003F810BD00380140F6
:1008E00010B50022002340F66A14A14200D100BFD7
:1008F0000A1201249440A3B2DC43048010BD21B14C
:10090000828942F40052828104E082894DF6FF73AD
:100910001A40828170471AB1838A0B43838202E0B6
:10092000838A8B438382704702460020B1F5007FA3
:1009300000D100BF13880B400BB1012000E0002064
:10094000704770B50246002400230025002040F6C1
:100950006A16B14200D100BFC1F3421501F01F0376
:10096000012606FA03F3012D02D19689334006E0F1
:10097000022D02D1168A334001E0968A33400C12D0
:10098000012606FA04F41688344013B10CB1012094
:1009900000E0002070BDF0B50346002400260025CD
:1009A000002040F66A17B94200D100BF1846C1F3D3
:1009B000421401F01F06012707FA06F5012C01D1A8
:1009C0000C3004E0022C01D1103000E014301AB1D8
:1009D00007682F43076002E00768AF430760F0BD78
:1009E0002DE9F04786B005460E460024A24600BF1A
:1009F000A1460027B08900B100BF2F462C8A4CF6D3
:100A0000FF700440F08804432C82AC894EF6F3104A
:100A10000440B08831890843718908430443AC819C
:100A2000AC8A4FF6FF400440B0890443AC8201A871
:100A3000FFF79CFD1F48874202D1DDF810A001E0BE
:100A4000DDF80CA0A88900F4004040B10AEBCA0010
:100A500000EB0A1031684900B0FBF1F807E00AEB3F
:100A6000CA0000EB0A1031688900B0FBF1F864207D
:100A7000B8FBF0F004012009642101FB1089A8896A
:100A800000F4004040B1322000EBC900B0FBF1F0AF
:100A900000F00700044308E0322000EB0910642155
:100AA000B0FBF1F000F00F0004432C8106B0BDE86C
:100AB000F087000000380140C1F3080282807047CF
:100AC00000BFFEE7014A024900F013B8410B0008DD
:100AD000AC00002002E008C8121F08C1002AFAD1A9
:100AE00070477047002001E001C1121F002AFBD1AE
:100AF00070472DE9F04116460F460446002503E0F5
:100B00003946B047641C6D1C20780028F8D128466F
:100B1000BDE8F0810349086000BF02490968002967
:100B2000FBD17047A80000200448006820B10348AA
:100B30000068401E0149086070470000A8000020BE
:100B400070B504460D4600BF80210548FFF7ECFE56
:100B50000028F9D0E0B2FFF7A5FE204670BD0000E6
:100B60000038014000F04AF84FF4A060FFF7B0FCF5
:100B7000FFF78EFE002008E01A2190FBF1F201FB46
:100B800012014131154A1154401C1828F4DB14A0FD
:100B9000FFF798FF20E000211348FFF7E7FA8021D4
:100BA0001148FFF7C9FB4FF40050FFF7D1FA0121BC
:100BB0000D48FFF7DBFA00BF4FF40050FFF788FB4A
:100BC0000028F9D009A0FFF77DFF09A0FFF77AFF01
:100BD0004FF47A70FFF79EFFDDE700002800002049
:100BE00052756E2E2E0A0000440002400A000000DA
:100BF00052756E332E2E2E0A0000000010B51248DA
:100C000000684FF47A71B0FBF1F4B4F1807F01D346
:100C1000012011E024F07F40401E4FF0E0214861A8
:100C20000F214FF0FF30FFF75DFC00204FF0E02177
:100C3000886107200861002008B100BFFEE700219D
:100C4000481EFFF74FFC10BD000000206C0C000890
:100C500000000020B0000000D40A00081C0D0008AD
:100C6000B000002000040000E40A000800A24A04CA
:100C7000000000000000000001020304060708094C
:100C80000000000001020304010203040607080932
:100C9000020406080100000000000000000000003F
:100CA0000000000000000000000000000000000044
:100CB0000000000000000000000000000000000034
:100CC0000000000000000000000000000000000024
:100CD0000000000000000000000000000000000014
:100CE0000000000000000000000000000000000004
:100CF00000000000000000000000000000000000F4
:100D000000000000000000000000000000000000E3
:0C0D1000000000000000000000000000D7
:04000005080000ED02
:00000001FF
