:020000040800F2
:100000003804002005010008710200086902000898
:100010006D0200084D010008030A000800000000FE
:10002000000000000000000000000000350400088F
:1000300051010008000000003F03000821050008EE
:100040001F0100081F0100081F0100081F01000810
:100050001F0100081F0100081F0100081F01000800
:100060001F0100081F0100081F0100081F010008F0
:100070001F0100081F0100081F0100081F010008E0
:100080001F0100081F0100081F0100081F010008D0
:100090001F0100081F0100081F0100081F010008C0
:1000A0001F010008890500081F0100081F01000842
:1000B0001F0100081F0100081F0100081F010008A0
:1000C0001F0100081F0100081F0100081F01000890
:1000D0001F010008F50700081F0100081F010008A4
:1000E0001F0100081F0100081F010008DFF810D0E1
:1000F00000F01AF800480047950A0008AFF30080A6
:10010000380400200648804706480047FEE7FEE71F
:10011000FEE7FEE7FEE7FEE7FEE7FEE7FEE7FEE7B7
:1001200029050008ED000008064C074D06E0E068D0
:1001300040F0010394E8070098471034AC42F6D32E
:10014000FFF7D8FFFC0A00081C0B000800BFFEE701
:1001500070472DE9F04102460025002600200023CB
:100160000024002791F803C00CF00F0591F803C09C
:100170000CF0100CBCF1000F03D091F802C04CEA57
:10018000050591F800C0BCF1000F31D014680020C3
:100190002BE04FF0010C0CFA00F3B1F800C00CEAB0
:1001A00003069E4220D183004FF00F0C0CFA03F798
:1001B000BC4305FA03FC4CEA040491F803C0BCF10B
:1001C000280F06D14FF0010C0CFA00FCC2F814C045
:1001D0000AE091F803C0BCF1480F05D14FF0010CC3
:1001E0000CFA00FCC2F810C0401C0828D1D31460DF
:1001F000B1F800C0BCF1FF0F34DD546800202EE0E0
:1002000000F1080C4FF0010808FA0CF3B1F800C037
:100210000CEA03069E4221D183004FF00F0C0CFA2A
:1002200003F7BC4305FA03FC4CEA040491F803C04D
:10023000BCF1280F05D100F1080C08FA0CF8C2F83F
:10024000148091F803C0BCF1480F07D100F1080CED
:100250004FF0010808FA0CF8C2F81080401C08287A
:10026000CED35460BDE8F08100BFFEE700BFFEE7DB
:100270007047000070B5002100230F22C47804B33A
:10028000154C246804F4E064C4F5E064210AC1F16B
:100290000403CA40447804FA03F1847814402143EB
:1002A00009010E4C0678A155047804F01F050124BD
:1002B000AC4005786D11AD0005F1E025C5F80041B1
:1002C00009E0047804F01F050124AC40044D0678D1
:1002D000761145F8264070BD0CED00E000E400E02A
:1002E00080E100E002490143024A116070470000CA
:1002F0000000FA050CED00E010B5002807DA0A0747
:10030000140E054A00F00F031B1FD45403E00A0724
:10031000130E024A135410BD18ED00E000E400E093
:1003200008B525208DF8000001208DF801008DF81A
:1003300002008DF803006846FFF79CFF08BD704778
:1003400029B1064A92690243044B9A6104E0034AC8
:1003500092698243014B9A6170470000001002408D
:1003600030B500210022002400232D4D6D6805F0DA
:100370000C0121B1042905D0082923D105E0294D1C
:10038000056022E0274D05601FE0254D6D6805F4EE
:100390007012234D6D6805F48034022505EB9242FE
:1003A0001CB9214D554305600BE01D4D6D6805F4EA
:1003B00000351DB11C4D5543056002E0194D5543F4
:1003C000056002E0174D056000BF00BF144D6D6869
:1003D00005F0F0010909154D6B5C0568DD404560CD
:1003E0000F4D6D6805F4E061090A104D6B5C4568BE
:1003F000DD4085600A4D6D6805F46051C90A0B4DFA
:100400006B5C4568DD40C560054D6D6805F4404195
:10041000890B074D6B5CC568B5FBF3F5056130BD15
:100420000010024000127A0000093D001400002074
:1004300024000020704710B500F002F810BD000045
:100440000CB50020019000903348006840F48030E3
:100450003149086000BF3048006800F40030009067
:100460000198401C0190009818B90198B0F5A06F50
:10047000F1D12948006800F4003010B1012000904B
:1004800001E0002000900098012843D12348006833
:1004900040F01000214908600846006820F007007D
:1004A00008600846006840F0020008601A4840688A
:1004B000194948600846406848600846406840F46A
:1004C000806048600846406820F47C104860084618
:1004D000406840F4E81048600846006840F08070CA
:1004E000086000BF0C48006800F000700028F9D0D8
:1004F0000948406820F00300074948600846406802
:1005000040F00200486000BF0348406800F00C0063
:100510000828F9D10CBD0000001002400020024064
:1005200010B500F099FA10BD10B51348006840F0FE
:1005300001001149086008464068104908400E490A
:100540004860084600680E4908400B4908600846A4
:10055000006820F4802008600846406820F4FE000F
:1005600048604FF41F008860FFF765FF4FF00060A0
:100570000449086010BD0000001002400000FFF8B0
:10058000FFFFF6FE08ED00E010B50121054800F080
:100590001EF830B10121034800F00AF802A000F073
:1005A00033FA10BD002C014052756E2E2E2E000025
:1005B000CA430282704721B1028842F001020280E0
:1005C00004E002884FF6FE731A400280704730B58F
:1005D0000246002000230024158A05EA01039589BC
:1005E00005EA010413B10CB1012000E0002030BD88
:1005F0001AB183890B43838102E083898B43838112
:10060000704701894FF6F872114001817047000070
:10061000002202881D4B98420ED01D4B98420BD0F1
:10062000B0F1804F08D01B4B984205D01A4B98422E
:1006300002D01A4B984204D14FF68F731A404B8860
:100640001A43174B984207D0164B984204D04FF6E6
:10065000FF431A40CB881A4302808B8883850B881E
:1006600003850A4B98420BD0094B984208D00E4B99
:10067000984205D00D4B984202D00D4B984201D1C3
:100680000B7A03860123838270470000002C01400F
:10069000003401400004004000080040000C00400D
:1006A00000100040001400400040014000440140A0
:1006B000004801400EB50121C802FFF741FE104875
:1006C000FFF79FFF42F20F70ADF8040041F61F40A4
:1006D000ADF800000020ADF80600ADF802008DF87E
:1006E000080069460648FFF793FF012211460448B7
:1006F000FFF77EFF01210248FFF75DFF0EBD0000FE
:10070000002C014010B500F003F8FFF7D3FF10BD37
:1007100008B519208DF8000001208DF80100022095
:100720008DF8020001208DF803006846FFF7A2FD56
:1007300008BD00001FB501218803FFF701FE4FF43B
:10074000E13000900020ADF80400ADF80600ADF8EF
:100750000800ADF80C000C20ADF80A006946074807
:1007600000F0DAF8012240F22551044800F0AEF81A
:100770000121024800F067F81FBD00000038014069
:1007800008B501210420FFF7DBFD4FF40070ADF840
:10079000000018208DF8030003208DF80200694640
:1007A0000748FFF7D6FC4FF48060ADF80000042046
:1007B0008DF8030069460248FFF7CBFC08BD000036
:1007C0000008014010B5FFF7DBFFFFF7A9FDFFF7B9
:1007D000B1FF10BD10B504462146054800F00DF9E3
:1007E00000BF8021024800F03AF80028F9D010BD7F
:1007F0000038014010B540F22551094800F03CF89E
:1008000040B1074800F0F4F806490870084600783F
:10081000FFF7E0FF40F22551014800F005F810BD58
:10082000003801402800002010B50022002340F6C7
:100830006A14A14200D100BF0A1201249440A3B25D
:10084000DC43048010BD21B1828942F400528281D0
:1008500004E082894DF6FF731A4082817047024698
:100860000020B1F5007F00D100BF13880B400BB111
:10087000012000E00020704770B5024600240023EC
:100880000025002040F66A16B14200D100BFC1F336
:10089000421501F01F03012606FA03F3012D02D1D0
:1008A0009689334006E0022D02D1168A334001E0DA
:1008B000968A33400C12012606FA04F41688344056
:1008C00013B10CB1012000E0002070BDF0B503466B
:1008D000002400260025002040F66A17B94200D106
:1008E00000BF1846C1F3421401F01F06012707FAA2
:1008F00006F5012C01D10C3004E0022C01D110309E
:1009000000E014301AB107682F43076002E007685F
:10091000AF430760F0BD00002DE9F04786B0054603
:100920000E460024A24600BFA1460027B08900B1B0
:1009300000BF2F462C8A4CF6FF700440F088044319
:100940002C82AC894EF6F3100440B08831890843FC
:10095000718908430443AC81AC8A4FF6FF400440E0
:10096000B0890443AC8201A8FFF7FAFC1F48874214
:1009700002D1DDF810A001E0DDF80CA0A88900F498
:10098000004040B10AEBCA0000EB0A103168490090
:10099000B0FBF1F807E00AEBCA0000EB0A1031687F
:1009A0008900B0FBF1F86420B8FBF0F004012009E5
:1009B000642101FB1089A88900F4004040B1322075
:1009C00000EBC900B0FBF1F000F00700044308E0C1
:1009D000322000EB09106421B0FBF1F000F00F00B1
:1009E00004432C8106B0BDE8F087000000380140C8
:1009F00001468888C0F308007047C1F3080282806E
:100A0000704700BFFEE70000014A024900F013B83A
:100A1000710A00083000002002E008C8121F08C157
:100A2000002AFAD170477047002001E001C1121F6F
:100A3000002AFBD170472DE9F04116460F460446C7
:100A4000002503E03946B047641C6D1C207800285F
:100A5000F8D12846BDE8F0810448006820B1034879
:100A60000068401E01490860704700002C0000200B
:100A700070B504460D4600BF80210548FFF7EFFE24
:100A80000028F9D0E0B2FFF7A5FE204670BD0000B7
:100A90000038014000F00AF84FF4A060FFF722FC94
:100AA000FFF790FEFFF72EFE00BFFEE710B51248DD
:100AB00000684FF47A71B0FBF1F4B4F1807F01D398
:100AC000012011E024F07F40401E4FF0E0214861FA
:100AD0000F214FF0FF30FFF70FFC00204FF0E02117
:100AE000886107200861002008B100BFFEE70021EF
:100AF000481EFFF701FC10BD000000201C0B000881
:100B00000000002034000000180A0008500B000804
:100B10003400002004040000280A000800A24A044F
:100B2000000000000000000001020304060708099D
:100B30000000000001020304010203040607080983
:100B40000204060800000000000000000000000091
:04000005080000ED02
:00000001FF
