:020000040800F2
:10000000F810002001010008731D0008271A0008DD
:10001000711D0008C30100088137000800000000BE
:10002000000000000000000000000000172200088F
:100030003502000800000000F7200008192200081F
:100040001B0100081B0100081B0100081B01000820
:100050001B0100081B0100081B0100081B01000810
:100060001B0100081B0100081B0100081B01000800
:100070001B0100081B0100081B0100081B010008F0
:100080001B0100081B0100081B0100081B010008E0
:10009000193700081B0100081B0100081B0100089C
:1000A0001B0100081B0100081B0100081B010008C0
:1000B0001B0100081B0100081B0100081B010008B0
:1000C0001B0100081B0100081B0100081B010008A0
:1000D0001B010008F52500081B0100081B01000892
:1000E0001B0100081B0100081B010008DFF80CD0F1
:1000F00000F02AF80048004721380008F8100020D6
:100100000648804706480047FEE7FEE7FEE7FEE7B1
:10011000FEE7FEE7FEE7FEE7FEE7FEE79D220008BA
:10012000ED00000840EA01039B0703D009E008C97D
:10013000121F08C0042AFAD203E011F8013B00F8AC
:10014000013B521EF9D27047064C074D06E0E068AD
:1001500040F0010394E8070098471034AC42F6D30E
:10016000FFF7C8FFC43A0008E43A000870B58C18DD
:1001700010F8015B15F0070301D110F8013B2A11BB
:1001800006D110F8012B03E010F8016B01F8016BA8
:100190005B1EF9D12B0705D40023521E0DD401F8A4
:1001A000013BFAE710F8013BCB1A921C03E013F86D
:1001B000015B01F8015B521EF9D5A142D8D30020A2
:1001C00070BDFEE7002070470020704710B5002288
:1001D0000549064802F0E4FA03490448091F02F001
:1001E000D9FA002010BD00008C00002090020020F1
:1001F00010B50146034802F0CDFA024802F0AEFA0B
:10020000002010BD90020020094A10B5D2F8182233
:10021000D2F814220AB1012010BD0A460146044852
:1002200002F0BEFABDE81040014802F0F9BA000041
:10023000900200207047FEE731B500F0F1F8044667
:1002400000F0EEF80099001B8842F9D338BD000099
:100250002DE9F84FDFF890A100220AF1040B1446B3
:1002600001274FF00F090BF1040E00BF0B6807FACE
:1002700004F52B40AB4274D1DFF870C14E68A6EB99
:100280000C0866452BD00DDC032E34D005DC36B3CC
:10029000012E19D0022E2FD11BE0112E16D0122EB6
:1002A0002AD119E0B8F5881F19D006DCB8F5803FCF
:1002B00015D0B8F5801F1FD111E0B8F5001F0ED082
:1002C000B8F5041F18D10AE0CA6815E0CA68121D03
:1002D00012E0CA6808320FE0CA680C320CE08A6883
:1002E0002AB1012A4FF0080203D0456104E004223C
:1002F00002E0056100E00022FF2B01D8064601E084
:1003000000F104064FEA840501D9A5F12005D6F8CD
:1003100000C009FA05F82CEA080C02FA05F54CEAC7
:10032000050CC6F800C04D68ED0057D5304DAE69DC
:1003300046F00106AE61AD6924F0030605F0010543
:1003400000952C4D06EB050CDCF80850A6074FEA8B
:10035000167809FA08F6B543274EB04202D10026B6
:1003600010E03BE0254EB04201D101260AE0244EC8
:10037000B04201D1022605E0224EB04201D103264F
:1003800000E0042606FA08F62E43CCF808604D6813
:10039000DAF80060ED03554601D51E4300E09E43A8
:1003A0002E604D68DBF80060AD035D4601D51E434D
:1003B00000E09E432E604D68DEF80060ED02754659
:1003C00001D51E4300E09E432E604D68AD020E4DE8
:1003D0002E6801D51E4300E09E432E60641C102C45
:1003E000FFF444AFBDE8F88F000401400000111095
:1003F000001002400000014000080140000C0140D4
:1004000000100140001401400C04014080680840C5
:1004100000D0012070470AB1016170470904FBE771
:10042000014800687047000004000020024801688D
:10043000491C01607047000004000020074810B507
:10044000016841F010010160032000F087F80020EE
:1004500000F006F800F016F8002010BD0020024061
:1004600010B5044600F048FC4FF47A71B0FBF1F08F
:1004700001F052F900222146501E00F04FF80020F2
:1004800010BD00001D4808B5816941F0010181617E
:10049000806900F001000090032000F05FF8002266
:1004A00011466FF00B0000F039F8002211466FF092
:1004B0000A0000F033F8002211466FF0090000F046
:1004C0002DF800221146501F00F028F80022114696
:1004D000101F00F023F800221146901E00F01EF8B5
:1004E00000221146501E00F019F80548416821F01D
:1004F000E06141F00071416008BD00000010024061
:100500000000014000F01F020121914040098000DD
:1005100000F1E020C0F8001170470000F0B40E4B6D
:100520001B680C46C3F30223C3F10705042D00D951
:100530000425191D072901D2002300E0DB1E012636
:1005400006FA05F1491E214099409E40761E16404C
:100550003143F0BC01F00EBC0CED00E0064900F0A8
:10056000070208684FF6FF03184040EA0220034ADA
:1005700010430860704700000CED00E00000FA0531
:1005800010B50C0605D501F07F0100EB41102830B5
:1005900003E000EB411000F5027099B232B1012284
:1005A0008272C180190C0181002010BD002282726C
:1005B0008180F9E7704700EB4112D0F81C04D26B40
:1005C00002F0BABA00EB4112D0F81C04D2F81C2297
:1005D00002F007BB10B504460A460B0601F07F0087
:1005E00004EB401101D5283101E001F502710870DA
:1005F000D009487094F8E803012809D0012084F854
:10060000E803206802F0AAFE002084F8E80310BD89
:10061000022010BD70B50A460446090602F07F00AC
:1006200003D504EB4011283103E004EB421101F53E
:10063000027100258D700870D009487094F8E803A5
:10064000012809D0012084F8E803206802F02EFF79
:1006500084F8E853002070BD022070BD01F07F01D6
:1006600000EB4110B0F8240280B2704770B5044628
:100670000D460E0601F07F0004EB401101D5283134
:1006800001E001F502710870E80948700A61CB7059
:1006900094F8E803012809D0012084F8E8032068D1
:1006A00002F02CFD002084F8E80370BD022070BD2C
:1006B00070B504460E4601F07F0004EB401101F5D1
:1006C000077100252CC101F81F5C01F8200D94F87A
:1006D000E80301280AD0012084F8E80370062068A6
:1006E00002F03EFF84F8E853002070BD022070BD88
:1006F00070B50D460446090605F07F0003D504EBEE
:100700004011283103E004EB451101F5027101228B
:100710008A700870E809487094F8E803012807D047
:1007200084F8E823206802F0F6FE680602D006E0AE
:10073000022070BD04F57B71206802F0B5FE002038
:1007400084F8E80370BD70B504460E4601F07F00E2
:1007500004EB40113C3100252CC1012201F81F2C73
:1007600001F8200D94F8E803012809D084F8E82363
:100770007006206802F0F4FE84F8E853002070BD93
:10078000022070BD10B50446006802F0CBFF0004E3
:1007900002D5204601F0FEFA206802F0C3FF4005B2
:1007A0000CD5206830F8441F21F480610180204678
:1007B00000F0ECF80021204600F0FDF8206802F07F
:1007C000B1FF400405D5206830F8441F21F4804172
:1007D0000180206802F0A6FF800405D5206830F86B
:1007E000441F21F400510180206802F09BFFC004E7
:1007F00013D5206830F8401F21F0040101802168E2
:100800004FF43D40A1F84000204600F0CCF82068AD
:1008100030F8441F21F480510180206802F082FFEB
:1008200000051AD5206830F8441F21F400610180CA
:10083000206830F8401F41F008010180206830F83E
:10084000401F41F004010180206802F06BFFC043AB
:10085000C00402D5204600F0E3F8206802F062FFF1
:10086000800508D5206830F8441F21F4007101800C
:10087000204600F09CF8206802F054FFC00505D522
:10088000206830F8441F21F48071018010BD000001
:100890002DE9F04186B004004FF0000504D094F833
:1008A000E903002620B108E0012006B0BDE8F08190
:1008B00084F8E863204600F04BF8032084F8E9034D
:1008C000206802F0EAFD04F110011422884668460F
:1008D000FFF728FC94E80F0002F03EFD002120689D
:1008E00002F033FF5FF0010704EB451080F8297038
:1008F00000F8285F8581C670066146616D1C8661BF
:100900000F2DF1D35FF0000004EB401181F8096274
:1009100081F80802888681F80B62C1F81862C1F874
:100920001C62401CC1F820620F28EDD314224146FE
:100930006846FFF7F7FB94E80F0002F0A5FD84F886
:10094000246084F8E973206802F09CFD0020ACE785
:1009500008B500680B49884212D10B48C16941F4BF
:100960000001C161C069002200F40000009011463E
:100970001420FFF7D3FDBDE808401420FFF7C2BDE7
:1009800008BD0000005C00400010024010B50446A5
:100990000121D0F81C0402F0EFF9D4F81C04BDE8E2
:1009A000104002F0B8B9D0F81C0402F0D3B9D0F866
:1009B0001C0402F0D5B910B5044690F8E8030128EC
:1009C0000BD0012084F8E80384F82410206802F09A
:1009D000BEFE002084F8E80310BD022010BDD0F850
:1009E0001C2400F57B71104602F0D0B910B5044606
:1009F00090F8E803012810D0012084F8E8030146AC
:100A00002046FFF7D7FD206802F03AFD206802F08B
:100A10007CFE002084F8E80310BD022010BD000019
:100A200010B50446D0F81C0402F0EBF9A0690028C8
:100A300004D00348016841F00601016010BD0000C8
:100A400010ED00E02DE9F84305460078454CC0075D
:100A500074D0E06940F08050E061E069424E00F0FF
:100A600080500090306840F480703060FFF7D8FC10
:100A7000074604E0FFF7D4FCC01B642833D8306875
:100A8000C005F7D5206A10F4407051D0A98801F450
:100A9000407181424CD0206A0126310491FAA1F2C2
:100AA000B2FA82F29300314A20F440701344C3F842
:100AB000006491FAA1F1B1FA81F102EB8101002306
:100AC000C1F800342062C00732D0FFF7A9FC074606
:100AD00041F288394FF0020808E000BFFFF7A0FCA0
:100AE000C11B494502D90320BDE8F88398FAA8F153
:100AF000B1FA81F141F040014046B6EB511F01D1FE
:100B000021680BE090FAA0F1B1FA81F141F04001C7
:100B1000B0EB511F01D1216A00E0616A98FAA8F098
:100B2000B0FA80F000F01F0206FA02F00142D5D0C0
:100B3000206A696820F440700843206228788007A2
:100B400005D56068A96820F44040084360602878B3
:100B5000C00605D56068E96820F48000084360603D
:100B60000020C1E700100240007000400000424237
:100B70002DE9F047DFF8708105460E46D8F80000F1
:100B800000F00700B0420CD2D8F8001021F00701A5
:100B90003143C8F80010D8F8000000F00700B04258
:100BA00077D12878514C800705D56068A96820F076
:100BB000F000084360602878C00759D069680120B8
:100BC00001290DD0022929D05FF0020393FAA3F284
:100BD000B2FA82F242F02002520904D0226803E005
:100BE0004FF40033F2E7626A93FAA3F3B3FA83F3A4
:100BF00003F01F03984002424BD0606820F00300CE
:100C000008436060FFF70CFC6968074641F28830D2
:100C100001290DD00229814617D025E04FF000733D
:100C2000D4E700BFFFF7FCFBC11B494501D918E021
:100C300081466068C0F381000128F3D118E000BF4D
:100C4000FFF7EEFBC11B49450BD86068C0F381007C
:100C50000228F5D10CE000BFFFF7E2FBC11B4945BC
:100C600002D90320BDE8F087606810F00C0FF3D1C3
:100C7000D8F80010404601F00701B1420BD90168D5
:100C800021F0070131430160006800F00700B04225
:100C900001D00120E6E72878400705D56068E968BB
:100CA00020F4E060084360602878000706D560689B
:100CB000296920F4605040EAC100606000F052F8F9
:100CC0006168F02292FAA2F201F0F001B2FA82F227
:100CD000D140074A515CC840064908600020FFF730
:100CE000BFFB0020BEE700000020024000100240D1
:100CF000AC3A000808000020014800687047000076
:100D00000800002008480949006849684FF4E0627B
:100D100092FAA2F201F4E061B2FA82F2D140044AFE
:100D2000515CC840704700000800002000100240DD
:100D3000BC3A000808480949006849684FF4605205
:100D400092FAA2F201F46051B2FA82F2D140044A5E
:100D5000515CC840704700000800002000100240AD
:100D6000BC3A000810B519A385B00FCB8DE80F0071
:100D70001AA01B4B006804905A681A4802F00C0134
:100D800004291DD008291BD14FF4701494FAA4F43F
:100D900002F47011B4FA84F4E140D2031DF801109A
:100DA00010D55A684FF4003393FAA3F302F40032DB
:100DB000B3FA83F3DA4004AB9A5CB0FBF2F0484339
:100DC00005B010BD08484843FAE7000002030405D7
:100DD000060708090A0B0C0D0E0F10100102000087
:100DE0000010024000127A0000093D002DE9F84F82
:100DF00004460078F74DC0074FF0010625D068681B
:100E00007704C0F38100012807D06868C0F381002F
:100E100002281BD16868C00318D597FAA7F0B0FA6A
:100E200080F040F02000400901D0286800E0686AA6
:100E300097FAA7F1B1FA81F101F01F0106FA01F169
:100E400008425ED0606800287CD05AE06068B0F547
:100E5000803F0BD010B1B0F5A02F11D0286820F43E
:100E600080302860286820F4802002E0286840F460
:100E700080302860606828B3FFF7D2FA80460BE024
:100E8000286840F480202860F0E700BFFFF7C8FA28
:100E9000A0EB0800642871D897FAA7F0B0FA80F0A8
:100EA00040F02000400901D0286800E0686A97FA05
:100EB000A7F1B1FA81F101F01F0106FA01F1084230
:100EC000E4D01EE0FFF7ACFA804605E0FFF7A8FA91
:100ED000A0EB08006428DED897FAA7F0B0FA80F0FB
:100EE00040F02000400901D0286800E0686A97FAC5
:100EF000A7F1B1FA81F101F01F0106FA01F10842F0
:100F0000E4D12078DFF8D08280074FF000094FF05D
:100F100002075BD568684FF0F80B10F00C0F07D094
:100F20006868C0F3810002281CD16868C00319D426
:100F300097FAA7F0B0FA80F040F02000400902D004
:100F4000286801E08BE0686A97FAA7F1B1FA81F1AD
:100F500001F01F0106FA01F108422CD02069012896
:100F60007DD128E0206990B396FAA6F0B0FA80F01F
:100F700048F82060FFF754FA824607E011E100BF0D
:100F8000FFF74EFAA0EB0A00022884D897FAA7F0E0
:100F9000B0FA80F040F02000400901D0286800E05D
:100FA000686A97FAA7F1B1FA81F101F01F0106FA18
:100FB00001F10842E4D028689BFAABF26169B2FA09
:100FC00082F220F0F80091400843286025E0FFE716
:100FD00096FAA6F1B1FA81F148F82190FFF720FACC
:100FE000824605E0FFF71CFAA0EB0A000228CCD8E5
:100FF00097FAA7F0B0FA80F040F02000400901D045
:10100000286800E0686A97FAA7F1B1FA81F101F067
:101010001F0106FA01F10842E4D1207800076ED5DD
:10102000A069B8B396FAA6F0B0FA80F008EB800099
:10103000C0F88064FFF7F4F9824605E0FFF7F0F9A5
:10104000A0EB0A000228A0D897FAA7F0B0FA80F027
:1010500040F06000B6EB501F02D128680CE062E15E
:1010600097FAA7F0B0FA80F040F06000B7EB501F9D
:1010700001D1286A00E0686A97FAA7F1B1FA81F114
:1010800001F01F0106FA01F21042D7D00120FFF74C
:10109000D3F834E0FFE796FAA6F1B1FA81F108EB54
:1010A0008101C1F88094FFF7BBF9824606E000BFDA
:1010B000FFF7B6F9A0EB0A00022872D897FAA7F05A
:1010C000B0FA80F040F06000B6EB501F01D1286804
:1010D0000BE097FAA7F0B0FA80F040F06000B7EBB1
:1010E000501F01D1286A00E0686A97FAA7F1B1FAA7
:1010F00081F101F01F0106FA01F21042D8D12078E7
:10110000400765D5E86940F08050E861E869DFF89C
:10111000CCB000F080500090DBF8001041F48071FA
:10112000CBF80010FFF77CF9824605E0FFF778F96D
:10113000A0EB0A00642834D8DBF80000C005F5D520
:10114000E06801280AD008B1052813D0286A20F0E9
:1011500001002862286A20F0040002E0286A40F0BA
:1011600001002862E06841F2883B90B3FFF758F92C
:1011700082460BE0286A40F004002862EEE700BFD8
:10118000FFF74EF9A0EB0A0159450AD897FAA7F0E4
:10119000B0FA80F040F04000B6EB501F02D1286852
:1011A0000CE0A3E097FAA7F0B0FA80F040F040001E
:1011B000B7EB501F01D1286A00E0686A97FAA7F1DF
:1011C000B1FA81F101F01F0206FA02F10842D7D00C
:1011D00031E005E000100240000042420070004093
:1011E000FFF71EF9824605E0FFF71AF9A0EB0A01A6
:1011F00059457BD897FAA7F0B0FA80F040F040004C
:10120000B6EB501F01D128680BE097FAA7F0B0FAAF
:1012100080F040F04000B7EB501F01D1286A00E099
:10122000686A97FAA7F1B1FA81F101F01F0206FA94
:1012300002F10842D8D1E06980B36968C1F3810145
:10124000022970D04FF080714F000228484609D023
:1012500091FAA1F1B1FA81F148F82100FFF7E0F825
:10126000044669E08A4691FAA1F1B1FA81F1C146DA
:1012700048F82100FFF7D4F8804605E0FFF7D0F8E2
:10128000A0EB0800022854D897FAA7F0B0FA80F033
:1012900040F02000400902D0286801E061E0686A5F
:1012A00097FAA7F1B1FA81F101F01F0106FA01F1F5
:1012B0000842E3D1206AB0F5803F05D16868A16893
:1012C00020F4003008436860D4E9080108436968E5
:1012D00021F47411084368609AFAAAF0B0FA80F019
:1012E00049F82060FFF79CF8044606E021E000BFC3
:1012F000FFF796F8001B02281BD897FAA7F0B0FA60
:1013000080F040F02000400901D0286800E0686AC1
:1013100097FAA7F1B1FA81F101F01F0106FA01F184
:101320000842E5D01DE01EE0FFF77AF8001B022816
:1013300002D90320BDE8F88F97FAA7F0B0FA80F041
:1013400040F02000400901D0286800E0686A97FA60
:10135000A7F1B1FA81F101F01F0106FA01F108428B
:10136000E2D10020E6E70120E4E7000010B5040028
:1013700003D094F8510010B104E0012010BD2046C4
:1013800000F038F8022084F851002068016821F04C
:1013900040010160D4E901010843D4E9031211437B
:1013A000084361690843218B01F400710843E16936
:1013B0000843216A0843A16A084321680860A069BC
:1013C000042101EA1040616A0843216848602168ED
:1013D000E06A08612068C16921F40061C1610449C3
:1013E000002008706065012084F85100002010BDC5
:1013F0000000002010B50068114986B088421CD159
:101400001048816941F48051816180690E4C00F47B
:1014100080500490A02000900220019003200390AF
:1014200069462046FEF714FF00214020CDE9000167
:10143000029169462046FEF70BFF06B010BD000082
:101440000030014000100240000801402DE9F8433F
:101450000025DDF820800446ADF8005090F85100DA
:10146000012803D094F8510022287DD169B162B1DE
:101470005BB194F85000012876D0012684F85060C2
:1014800094F85100012803D005E00120BDE8F8835D
:10149000322084F851006565A263A387E387216346
:1014A000A386E386A564E564A06A4FF40057B842BA
:1014B00009D12068016821F40051016020680168A9
:1014C00041F40051016020680168490603D40168B5
:1014D00041F040010160E0684FF48271B0F5006FA7
:1014E000606807D0002867D088426ED1E08E01285E
:1014F00062D06AE020B188420CD1E08E012809D187
:10150000206B21680088C860206B801C2063E08EFF
:10151000401EE086E08E80B9A06AB84244D12068BF
:10152000016841F4805101603EE02068C068A16B11
:101530000880A06B801CA0639EE04346002202212D
:10154000204600F019FE002874D1206B2168008825
:10155000C860206B801C2063E08E401E0004000CDD
:10156000E08609D1A06A00E0C7E0B84204D1206853
:10157000016841F480510160434600220121204668
:1015800000F0FAFD00286FD12068C068A16B0880C8
:10159000A06B801CA063E08F401EE087E08E0028D7
:1015A000CBD1606800286AD1434600220121204641
:1015B00000F0E2FDF0BBB8E7206B411C216321681D
:1015C0000078C860E08E401EE086E08E98B9A06A80
:1015D000B84204D12068016841F48051016043465B
:1015E00000220121204600F0C7FD18BB2068C0681A
:1015F000A16B087040E0434600220221204600F023
:10160000BBFDB8B9206B411C216321680078C8601C
:10161000E08E401E0004000CE08607D1A06AB842AC
:1016200004D12068016841F48051016000224346E2
:10163000012100E018E0204600F09EFDA0B92068DE
:10164000C168A06B421CA2630170E08F401EE0875E
:10165000E08E0028CFD1606888B94346002201217E
:10166000204600F089FD08B103200FE72068C1681B
:10167000A06B421CA2630170E08F401EE087A06A4D
:10168000B84210D1434600220121204600F074FDEB
:1016900018B1606D40F002000FE02068C068ADF83E
:1016A0000000BDF80000434601228021204600F0E2
:1016B00063FD20B1606D40F010006065D4E784F8F0
:1016C0005160A06AB84214D120688168C943C90634
:1016D0000FD4616D41F002016165016821F4005190
:1016E00001602068016841F40051016084F85050A5
:1016F000CBE684F850500020C8E60220C6E64FF042
:10170000E0210428086903D020F004000861704734
:1017100040F00400FAE7704710B5401EB0F1807F3A
:1017200001D3012010BD4FF0E02460610F2160174C
:1017300000F020FB0020A06107202061002010BDE8
:1017400010B5FFF7E8FF10BD7047000038B504463C
:1017500000680168C26811F0010F02F4807204D0C1
:101760001AB1E16B41F00101E1630168C1F340028C
:10177000416901F0010122B119B1E26B42F00402AA
:10178000E2630268C2F3800222B119B1E26B42F057
:101790000202E2630268C2F3C00222B119B1E16B36
:1017A00041F00801E1630168C068C1F3401100F035
:1017B000200019B110B1204600F094FD20680168A6
:1017C000C068C1F3C01100F0800019B110B120460B
:1017D00000F094FE21680868CA68C0F3801002F027
:1017E0004002012570B16AB1CA68204622F0400269
:1017F000CA6094F83910322911D080F8395000BFEE
:1018000000F010F9E06B002808D0206801684068FB
:10181000009084F839502046FFF796FF38BD22210A
:1018200080F83910ECE770B5040004D094F8390062
:10183000002510B106E0012070BD84F83850204624
:1018400000F020F8022084F839002068C16821F4F3
:101850000051C160204600F099FD2068016921F423
:10186000904101612068416921F02A0141612068AD
:10187000C16841F40051C160E563012084F839007A
:10188000002070BD10B50068154986B0884225D18A
:101890001448816941F4804181618069124C00F4EF
:1018A000804004904FF400700090022001900320CB
:1018B000039069462046FEF7CBFC00212015CDE9B8
:1018C0000001029169462046FEF7C2FC0022114643
:1018D0002520FEF723FE2520FEF714FE06B010BDDE
:1018E00000380140001002400008014090F83930F3
:1018F000012B01D0122B2CD139B332B390F83830F0
:10190000012B26D0012380F8383081628285C28580
:101910000021C16390F83920122A18D05FF022020A
:1019200080F8392080F838100168CA6842F4807263
:10193000CA6001684A6942F001024A610068C168F0
:1019400041F02001C1600020704701207047322221
:10195000E6E70220704770472DE9F047044690F80B
:10196000390099460D46012801D0222858D12DB3BF
:1019700022B394F83800012852D0012684F8386048
:101980000027E76394F8390022281AD05FF012008C
:1019900084F83900A284E2844FF48058E08C4B46EE
:1019A000401EE084A0684FF0000240454FF08001E7
:1019B000204613D100F0D5FD08BB04E00120BDE8AE
:1019C000F0873220E4E728882168C0F308004860E7
:1019D000206908B16D1C08E0AD1C06E000F0C1FDF7
:1019E00068B9216815F8010B4860E08C0028D5D152
:1019F0004B4600224021204600F0B3FD08B10320F1
:101A0000DDE794F83900322806D084F8396000BF49
:101A100084F838700020D2E7222084F83900F7E7F4
:101A20000220CCE77047FEE710B5142000F05DF807
:101A3000800705D10321BDE81040142000F077B8DD
:101A400010BD7CB50446002529460D2000F005F99F
:101A5000932020702020607001A82346009002226D
:101A600019460C2000F06FF8010009D1225C401CDF
:101A70005540C0B20428F9D3205CA84200D002210E
:101A800008467CBD70B50C46054600F02EF820EAED
:101A900004012846BDE8704000F0DFB810B500F042
:101AA00042F88D212A2000F0D8F83E212B2000F0AA
:101AB000D4F81E212D2000F0D0F800212C2000F0B9
:101AC000CCF87F21262000F0C8F88421182000F0EF
:101AD000C4F84021152000F0C0F83D21112000F08D
:101AE000BCF8BDE81040FFF79FBF7E2101EA40002F
:101AF00040F0800000F010BB7CB50C460546072185
:101B00000D2000F0AAF8257001A8234600900122BC
:101B100019460C2000F017F818B9BDF80410102968
:101B200000D002207CBD0F21012000F096B870B5D6
:101B30000C460546FFF7D9FF40EA04012846BDE8F8
:101B4000704000F08AB82DE9FF5F00270226DDF81B
:101B500038A015468B468146B8460C2805D0B9F109
:101B60000E0F05D11227102001E077273020804684
:101B700047F08001022000F070F880210420FFF778
:101B800081FF80210A20FFF7D2FF0021012000F011
:101B900064F8002406E01BF80410092000F05DF84A
:101BA000641CA4B2AC42F6D34946012000F055F8BB
:101BB000B9F10C0F03D180210D20FFF7B8FF4FF4CE
:101BC000FA650420FFF791FF6D1E2D0404462D0CCD
:101BD00004D0E00702D114EA080FF2D080210D20D2
:101BE000FFF750FF35B10620FFF77FFF10F01B0F06
:101BF00004D0022604B03046BDE8F09F00263C40E9
:101C0000E00700D00126B9F10C0FF3D10A20FFF74D
:101C10006CFF04460C20FFF768FF10F007004FEA46
:101C2000C40104D008390844AAF8000001E0AAF869
:101C3000001024B1102C04D91024002503E0012445
:101C4000FBE7002506E00920FFF74FFF0399485501
:101C50006D1CADB2A542F6D3CCE77E2202EA40006D
:101C600000F072BAF0B5214885B0816941F01001E9
:101C70008161816901F010010491816941F02001C5
:101C80008161816901F020010491816941F00401C1
:101C900081618069164E00F004004FF400540490F6
:101CA000002221463046FEF7B6FB124F00221121DA
:101CB0003846FEF7B0FB0094012402256946304601
:101CC00003950194FEF7C4FA1120CDE9000469469A
:101CD00003953846FEF7BCFA00200095CDE90104D3
:101CE00069463846FEF7B4FA05B0F0BD0010024070
:101CF00000100140000801400E4810B50C49016079
:101D00004FF48271416000218160C1604FF4007224
:101D10000161C0E905121822C0E907214162816210
:101D20000A21C162FFF722FB002800D0FEE710BDA8
:101D300000300140DC01002010B5002208490948AC
:101D400000F0D7FE0849074801F07FF80749054829
:101D500000F018FDBDE81040024801F0C3B80000D3
:101D60009000002090020020A001002078000020B8
:101D7000FEE770470907090E002806DA00F00F0099
:101D800000F1E02080F8141D704700F1E02080F899
:101D9000001470472DE9FC5F4FF000080446ADF8D1
:101DA0000480ADF8008048F60F7B4FF002094FF435
:101DB000806692E1BDF8041011F00F072BD030F8C7
:101DC0002710ADF80010BDF80010090478D530F8E0
:101DD000272040F68F710A4020F8272004EB471592
:101DE00095F8120205F502750028206869D0297857
:101DF00030F8212052047DD5B0F8503009EBC101F4
:101E0000194406EB4101415AC1F309015FEA010A95
:101E100071D0EA88D0E0BDF80410C9062AD4018840
:101E200001EA0B010180206804F12805B0F8502078
:101E30002B7809EBC301114406EB4101405AC0F372
:101E400009006064E16B0844E06300212046FEF76E
:101E5000B2FB94F824000028ABD0A8690028A8D1D0
:101E600094F82400216840F08000A1F84C0084F828
:101E7000248032E1018804F50275ADF80010BDF848
:101E8000001009051ED5B0F850302978062202EB63
:101E9000C101194406EB4101405A04F57B71C0F3BE
:101EA0000903EB61AA88206801F040FC20680188E2
:101EB00040F68F72114001802046FEF790FD0CE144
:101EC000A0E055E0BDF800100904D2D5028840F624
:101ED0008F710A4002802068B0F8503029780622BD
:101EE00002EBC101194406EB4101405A83059B0DE9
:101EF000EB6101E051E063E008D0AA8869692068DD
:101F000001F014FCE9696869084468610021204611
:101F1000FEF758FB2068B0F85010891D06EB410110
:101F2000014428693E280CD9C0F34F12C00601D1E4
:101F3000521E92B24FF6FF7000EA822040F4004039
:101F400009E0C0F34F02C00701D0521C92B24FF615
:101F5000FF7000EA82200860216808884BF68F72C3
:101F6000104080F4405048F2800210430880B4E0F2
:101F7000B0F850202B78062101EBC301114406EB89
:101F80004101415AC1F309015FEA010A24D0AA883C
:101F90005346696901F0CAFB1EE0B0F850200623E1
:101FA00003EBC101114406EB4101415AC1F30901A0
:101FB0005FEA010A04D02A895346696901F0B6FB39
:101FC0002978206830F8213048F68F72134048F2A3
:101FD000C002134320F82130E96901EB0A00E861EF
:101FE000696901EB0A026A61AB6913B1286950455E
:101FF00004D929782046FEF7E5FA03E0297820463F
:10200000FEF756FBBDF80000000666D5206804EB1D
:10201000471530F8271001EA0B0120F8271095F832
:10202000320028350028206812D0297830F8212085
:10203000B0F8503052061ED509EBC101194406EB29
:102040004101405A83059B0DEB6124D0EA881EE0D4
:10205000B0F850302A7809EBC201194406EB41016F
:10206000405A83059B0DEB6121D0AA8869692068DD
:1020700001F073FB1BE0062202EBC101194406EBE1
:102080004101405A83059B0DEB6104D02A8969699F
:10209000206801F062FB2978206830F8212048F69A
:1020A0008F731A404CF280031A4320F821202068D5
:1020B000B0F850202B7809EBC301114406EB410125
:1020C000405AC0F30900E86169690A186A61297811
:1020D000AB69204663B1FEF736FB2068B0F84410C8
:1020E000ADF8041009043FF565AE0020BDE8FC9F83
:1020F000FEF761FAF1E770470EB501238DF8040091
:102100000A20009002AA01A90248FFF79FF99DF852
:1021100008000EBDDC01002070B50A4D0446002207
:1021200010212846FEF777F92046FFF7E5FF00204B
:10213000FFF7E2FF0446012210212846FEF76BF963
:10214000204670BD0008014070B50A4C0E46054699
:10215000002210212046FEF75EF92846FFF7CCFF4B
:102160003046FFF7C9FF2046BDE87040012210212C
:10217000FEF751B9000801402DE9F0471D46904691
:102180000E460446FEF74CF907465FEA08004FF09A
:1021900000084FF4005A4FF0010926D034E0681CC3
:1021A00023D025B1FEF73CF9C01BA8421DD92068F9
:1021B000416821F0E00141602068016821F04001A0
:1021C0000160A06A504509D12068016821F40051DE
:1021D00001602068016841F40051016084F8519069
:1021E00084F850800320BDE8F0872068806836EAD4
:1021F0000000D4D10DE0681C06D0002DD7D0FEF72A
:102200000FF9C01BA842D2D82068806836EA0000C7
:10221000F1D00020E7E7704710B5FEF707F9BDE8F9
:102220001040FFF78DBA30B593B001200090000444
:102230000024CDE901040225CDE907504FF4E01058
:1022400009906846FEF7D2FD00B1FEE70F20CDE908
:102250000A054FF48060CDE90C4002210AA80E94D3
:10226000FEF786FC00B1FEE710200F9012940FA835
:10227000FEF7E8FB00B1FEE7FEF73EFD4FF47A7192
:10228000B0FBF1F0FFF748FA0420FFF738FA00221C
:102290001146501EFEF742F913B030BD0D480168DB
:1022A00041F00101016041680B4A11404160016841
:1022B0000A4A11400160016821F4802101604168EF
:1022C00021F4FE0141604FF41F0181600449C00305
:1022D00008607047001002400000FFF8FFFFF6FEA4
:1022E00008ED00E010B590F83910222903D032290A
:1022F00001D0022010BD8168B1F5805F11D0016965
:10230000002901681FD0496801F07F03816A4A1CD7
:1023100082620B70C18D491E0904090CC18518D059
:1023200030E00269816A002A0268526805D0D2B2A0
:102330000A80816A491C8162ECE7C2F308020A80C4
:10234000816A891CF7E74A68816A4B1C83620A70BC
:10235000E0E70168CA6822F02002CA6090F83910EC
:10236000322911D00168CA6822F48072CA600168FB
:102370004A6922F001024A615FF0010180F83910D8
:10238000FFF7E9FA002010BD1221F7E72DE9F0412F
:10239000044600680169E26821F44051114301617B
:1023A0002169A0680843616908432168CA6841F24D
:1023B0000C639A430243CA6020684169A26921F410
:1023C0004071114341614C4920686425322688429E
:1023D0003CD1FEF7AFFC00EBC00101EB00106168DF
:1023E0008900B0FBF1F7FEF7A5FC00EBC00101EBA3
:1023F00000106168B0468900B0FBF1F0B0FBF5F069
:102400006FF01801484307EB800106EB0110B0FBA9
:10241000F5F000F0F006FEF78DFC00EBC00101EBDB
:10242000001061688900B0FBF1F0B0FBF5F006EB3D
:102430000016FEF77FFC00EBC00101EB00106168A5
:102440008900B0FBF1F7FEF775FC3BE0FEF75AFCA4
:1024500000EBC00101EB001061688900B0FBF1F7EF
:10246000FEF750FC00EBC00101EB00106168B046C4
:102470008900B0FBF1F0B0FBF5F06FF018014843B4
:1024800007EB800106EB0110B0FBF5F000F0F00661
:10249000FEF738FC00EBC00101EB00106168890019
:1024A000B0FBF1F0B0FBF5F006EB0016FEF72AFCEE
:1024B00000EBC00101EB001061688900B0FBF1F78F
:1024C000FEF720FC00EBC00101EB00106168890001
:1024D000B0FBF1F0B0FBF5F06FF01801484307EBEB
:1024E000800108EB0110B0FBF5F0216800F00F004F
:1024F00030448860BDE8F0810038014090F8391020
:10250000122903D0322901D0022070478168B1F529
:10251000805F016A0BD04A1C026202680978516030
:10252000C18C491E0904090CC1840ED017E009882A
:102530000268C1F30801516001690029016A02D0F3
:10254000491C0162ECE7891CFBE70168CA6822F0BC
:102550008002CA600068C16841F04001C16000208B
:1025600070472DE9F0471D4690460E460446FDF79C
:1025700057FF07465FEA08004FF000094FF00108D7
:1025800008D030E0681C05D095B1FDF749FFC01BAD
:10259000A8420DD82068006836EA0000F2D127E092
:1025A000681C20D025B1FDF73BFFC01BA8421AD9FB
:1025B0002068C16821F08001C1602068C16821F0F5
:1025C0002001C1602068C16821F48071C160206869
:1025D000416921F00101416184F8398084F8389023
:1025E0000320BDE8F0872068006836EA0000D7D0F5
:1025F0000020F6E70148FFF7A9B8000034020020E8
:10260000D0F8180220B10021C0F814120846704713
:102610000220704770B50546D0F8184200F016FB4E
:10262000C4F80C02D5F8180248B1D5F81C12D4F839
:102630000402CA6804F503719047002070BD0220AF
:1026400070BD70B504460025812100F06EFA0121AD
:10265000204600F06AFA8221204600F066FAD4F89B
:10266000180250B1D4F81C0204F506744068804783
:10267000206800F03DFD00202060284670BD10B5A8
:10268000D0E9864159B194F80002FF2807D08B6841
:1026900094F8012221469847FF2084F80002002088
:1026A00010BD00000A21018000487047C8000020CA
:1026B0004321018000487047180100204321018018
:1026C00000487047D4000020432101800048704733
:1026D0005C0100202DE9F0410446007C00254FF408
:1026E000007670B3402302228121204600F002FBD5
:1026F000402302220121204600F0FCFA0823032295
:102700008221204600F0F6FA4FF4077000F0F2FC48
:10271000C4F81802F0B10746D4F81C0200688047DC
:102720000020C7F81402C7F81802207CD7F804224A
:1027300090B140230121204600F0E6FA2846BDE88A
:10274000F081FFE7334602228121204600F0D2FAD1
:102750003346CEE70125F1E73346EBE710B5D0F875
:10276000181269B1027C002AD1F8042205D0402356
:10277000012100F0C9FA002010BD4FF40073F7E703
:10278000022010BD02460220002902D00020C2F81B
:102790001C127047D0F81802C0F8041200207047CD
:1027A000D0F81802C0F81022C0F8081200207047B4
:1027B00070B50646D0F8185208780C4610F0600143
:1027C00021D0202927D1E288AAB10006607807D558
:1027D000D6F81C128B6829469847E288294617E0EC
:1027E00085F80002A07985F80102E2882946304682
:1027F00000F050F80FE0D6F81C12607800228B68C9
:102800002146984707E060780A2804D1034901224D
:10281000304600F059F8002070BD0000C4000020D0
:1028200010B5D0F8181289B1D1F814220AB10120DC
:1028300010BD0122C1F81422B1F8102293B2D1F8D0
:102840000822812100F0E6FA002010BD022010BD10
:1028500010B5D0F8142252689047002010BD1346DE
:1028600010B50A46002100F04FFA002010BD1346B3
:1028700010B50A46002100F0CDFA002010BD10B5B9
:102880000446802100F0AFFA2046BDE81040002148
:1028900000F0A9BA10B50323C0F80821C0F8F4313C
:1028A000C0F80C2113460A46002100F02DFA002042
:1028B00010BD10B505210023C0F8F4111A461946C1
:1028C00000F022FA002010BD10B502238261C0F88A
:1028D000F431C26113460A46002100F09BFA002041
:1028E00010BD10B504210023C0F8F4111A46194692
:1028F00000F090FA002010BD10B50A46024903A06E
:1029000000F0D4F8004810BDF40A002043444320EE
:10291000436F6E66696700001220088000487047A8
:10292000B000002010B50A46024903A000F0BEF82E
:10293000004810BDF40A002043444320496E7465EA
:1029400072666163650000000420088000487047DB
:10295000AC00002010B50A46024903A000F0A6F81A
:10296000004810BDF40A002053544D6963726F652E
:102970006C656374726F6E696373000010B50A460C
:10298000024903A000F092F8004810BDF40A0020AC
:1029900053544D3332205669727475616C20436F05
:1029A0006D506F727400000010B50A46024903A012
:1029B00000F07CF8004810BDF40A002030303030C0
:1029C000303030303030314100000000F8B504467E
:1029D00048880D46010A08294BD2DFE801F04A0475
:1029E00009174A4A4048D4F81012207C0A6832E09D
:1029F000207C02260028D4F8140205D0C16A68465B
:102A000088470146467041E0816AF8E7C0B206286F
:102A10002FD2DFE800F003080D12171CD4F81012B3
:102A2000207C4A6817E0D4F81012207C8A6812E0F3
:102A3000D4F81012207CCA680DE0D4F81012207C63
:102A40000A6908E0D4F81012207C4A6903E0D4F83F
:102A50001012207C8A6969469047014616E0207C66
:102A600038B9D4F81402416B68468847F5E7207CF2
:102A700020B129462046FFF702FFF8BDD4F8140222
:102A8000016B68468847014607204870BDF8000082
:102A90000028F2D0EA88002AEFD0824200D902460C
:102AA000ADF800202046FFF70FFFF8BD70B50023FA
:102AB00000281DD00446002502E06D1CEDB2641C08
:102AC0002678002EF9D1022404EB45041480CC545E
:102AD0005B1C0322CA5400245B1C06E0CA545B1C26
:102AE000DAB28C54521CD3B2401C0278002AF5D1C1
:102AF00070BD10B580B1D0F8143213B10023C0F806
:102B0000143209B1C0F81012012180F8FC110270D2
:102B100000F0A0F8002010BD022010BD10B5D0F8C4
:102B20002002FDF777FD002010BD10B5D0F820027F
:102B3000FDF750FD002010BD2DE9F0411746044679
:102B400041B1D4F8140242698AB394F8FC01032815
:102B500042D043E0D4F8F411002504F11400022916
:102B600033D1D0E902639E4207D9F31A83609AB247
:102B700039462046FFF77BFE12E04068B0FBF3F1D8
:102B800003FB1101A1B9984212D3D4F8F81188427D
:102B90000ED2002211462046FFF769FEC4F8F85114
:102BA00000231A461946204600F0AEF80DE012E068
:102BB000D4F81402C16829B194F8FC01032801D1AA
:102BC000204688472046FFF774FE94F8000201284B
:102BD00004D184F8005201E0204690470020BDE86F
:102BE000F08170B51546044641B1D4F814028269EB
:102BF0003AB394F8FC01032824D025E0D4F8F4116A
:102C000004F5827003291FD1D0E902218A420BD931
:102C1000531A83600846834200D303469AB229467A
:102C20002046FFF71CFE0FE0D4F81402016929B119
:102C300094F8FC01032801D1204688472046FFF77D
:102C400050FE01E020469047002070BDD0F82002E1
:102C5000FDF704BD10B51E490446C1F81C04C0F8B8
:102C600020121C4808600820486002208860032069
:102C7000C86000208861C86108620846FDF708FE48
:102C800008B1FDF7D8FA0022D4F820021823114623
:102C900004F50874FDF774FC582300228021206895
:102CA000FDF76EFCC023002281212068FDF768FC3F
:102CB0004FF48873002201212068FDF761FC4FF476
:102CC0008073002282212068FDF75AFC002010BD8D
:102CD000D4060020005C00400A06D0F8200201F073
:102CE0007F0100EB411002D590F82A00704790F860
:102CF0000A02704710B51C461346D0F8200222463F
:102D0000FDF7B4FC002010BD10B5D0F82002FDF78F
:102D1000CFFC002010BD70B50022044640231146B0
:102D2000FFF7E8FF40252B46002280212046C4F80B
:102D30001051FFF7DFFF0120256284F8FC01D4F871
:102D4000180228B1D4F8140221794268204690472D
:102D5000002070BD90F8FD1180F8FC110020704734
:102D600010B590F8FC11032904D1D0F81412C969E8
:102D700001B18847002010BD01740020704710B5D4
:102D8000D0F82002FDF717FE002010BD70B50446F4
:102D900000F50270054600F044F80120C4F8F40183
:102DA000B4F80E02C4F8F80194F8080210F01F01FC
:102DB0000AD001290DD0022910D000F08001204650
:102DC00000F011F8002070BD2946204600F08FF871
:102DD000F8E72946204600F071F9F3E72946204636
:102DE00000F0FEF8EEE710B5D0F82002FDF780FC09
:102DF000002010BD10B5D0F82002FDF7F7FD00202F
:102E000010BD90F8FC1180F8FD11042180F8FC1130
:102E10000020704710B5D0F82002FDF794FC002088
:102E200010BD0A7802704A7842708A78CB7802EB3B
:102E3000032242800A794B7902EB032282808A794D
:102E4000C97902EB0121C18070470246002011B10F
:102E5000C2F8141270470220704710B5D0F814223F
:102E600002241AB11268904700B90024204610BD10
:102E700070B50E461A4D897804462970012928D864
:102E800094F8FC01022802D0032822D105E099B170
:102E90000320616084F8FC0109E091B16068884218
:102EA0000AD0C1B22046FFF7D3FC297861602046E2
:102EB000FFF7D3FF02280CD02046BDE87040FFF793
:102EC00010BD022084F8FC0120466160FFF7C0FCC1
:102ED000F2E731462046BDE87040FFF7D0BC000065
:102EE000D801002010B5FFF785FF002010BD2DE9A7
:102EF000F04100264B78012532460A2B43D2DFE809
:102F000003F03C584251420805422A27FFF75EFD74
:102F100063E004468888C8B9C888B8B9887800F0E2
:102F20007F0794F8FC01032810D084F8FE7139461D
:102F30002046FFF724FF2046FFF7D3FC1FB10220F5
:102F400084F8FC0149E084F8FC5146E020461AE090
:102F5000FFF78EFF41E0CB88012B14D190F8FC31B4
:102F6000022B02D0032B0ED104E08260012200F17B
:102F7000080114E00122011D11E090F8FC21022A51
:102F800004D0032A02D0FFF77AFC26E0C560D0F80F
:102F9000041209B10321C160022200F10C01FFF704
:102FA00093FC1AE004464888012816D1C4F804525C
:102FB0000BE0044690F8FC01022801D00328C5D19B
:102FC0004888012809D1C4F80422D4F81402826880
:102FD000204690472046FFF784FC3046BDE8F0814C
:102FE00070B50D460446287800260979C0F34110D3
:102FF000012806D06878A0B301281FD003283FD14C
:1030000007E0D4F814022946826820469047002041
:1030100070BD94F8FC01022817D003282CD16888D1
:1030200028B921B1802902D02046FFF7DCFED4F870
:103030001402294682682046904713E094F8FC0168
:10304000022802D0032817D103E0C9B180291BD17F
:1030500016E06888A0B9480604D02046FFF75EFD58
:10306000E5E703E02046FFF73CFC09E094F8FC01AB
:10307000022807D003280BD029462046FFF7FFFB84
:10308000304670BD4806FBD02046FFF7ACFEF7E7A0
:10309000080601F07F0004EB001501D5143501E0AE
:1030A00005F582752046FFF717FE00B10120286064
:1030B000022229462046FFF707FCE1E770B50546E6
:1030C00090F8FC010C4603280DD1207901280AD87C
:1030D000D5F81402826828469047E08830B928461F
:1030E000FFF7FFFB02E02846FFF7C9FB002070BD99
:1030F0007047000000487047B40400202DE9F047F5
:10310000CC780A7848F68F1334B1012C6DD0022C9C
:1031100008D0032C13D10BE030F822401C4044F4BB
:1031200000730AE030F822401C4020F8224006E0FC
:1031300030F822401C4044F4C06320F822300C7860
:1031400030F8245048F68F72154048F280031D4332
:10315000254320F824508D7A48F6BF7904274BF692
:103160008F7A48F2C0044CF28006EDB30D7830F847
:1031700025C048F280180CEA020C4CEA080C20F832
:1031800025C0CD88B0F850C025F0010591F8008029
:103190000CEBC80C00EB4C0CCCF800540D89B0F8CB
:1031A00050C025F0010591F8008007EBC80767447F
:1031B00000EB4707C7F800544D78002D0D7830F824
:1031C00025704FEA47477DD0002F05DA30F825708B
:1031D0001740374320F825700D7830F825707F06AA
:1031E00008D530F8257001E024E01DE017402743A2
:1031F00020F825700C7830F824501540354320F81D
:1032000024500C7830F8242002EA09021A4320F8EE
:1032100024200A7830F8221001EA0A01194320F824
:1032200022100020BDE8F08730F822401C4044F412
:10323000806382E74D78F5B18D88B0F8506025F055
:1032400001050F7806EBC70600EB4606C6F80054EA
:103250000D7830F82560760605D530F825601640E3
:10326000264320F825600A7830F8221001EA090187
:1032700081F02001D2E78C88B0F8505024F001048E
:1032800091F800C007EBCC073D4400EB4505C5F8BD
:103290000044B0F850400D78062707EBC5052C44D4
:1032A00000EB44070C694FF6FF7C07F580673E2C66
:1032B0000CD9C4F34F15E40601D16D1EADB20CEA72
:1032C000852400E01EE044F4004407E0C4F34F0509
:1032D000E40701D06D1CADB20CEA85243C600C788B
:1032E00030F824506D0405D530F82450154035438E
:1032F00020F824500A7830F8221001EA0A0181F4FB
:1033000040518BE7002F05DA30F82570174037431E
:1033100020F825700D7830F82560760605D530F850
:1033200025601640264320F825600E7830F8265098
:103330001540254320F826500C7830F8242002EA66
:103340000A0282F440521A4320F824200A7830F806
:10335000221001EA090161E7002070472DE9F043DE
:1033600091F80A8091F801C00A7848F6BF774BF6C9
:103370008F7948F2800348F2C0054CF2800648F687
:103380008F74B8F1000F2ED0BCF1000F30F822C0BE
:103390004FEA4C4C4ED0BCF1000F07DA30F822C097
:1033A0000CEA040C4CEA060C20F822C00A7830F82B
:1033B00022C05FEA4C6C07D530F822C00CEA040C3E
:1033C0004CEA050C20F822C00A7830F8225025403B
:1033D000354320F822500C7830F824203A401A4324
:1033E00020F824201BE0BCF1000F0ED030F8226042
:1033F000760605D530F8226026402E4320F822605C
:103400000A7830F8221039400EE030F822506D046E
:1034100005D530F822502540354320F822500A784F
:1034200030F8221001EA0901194320F82210002087
:10343000BDE8F083BCF1000F07DA30F822C00CEAD7
:10344000040C4CEA060C20F822C00A7830F82260FE
:10345000760605D530F8226026402E4320F82260FB
:103460000E7830F8262022402A4320F826200C78B7
:1034700030F8242002EA09021A4320F82420BFE78A
:103480000020704700207047012120F8401F0021D4
:103490000180818001820846704730F8401F21F486
:1034A0003D410180002070470020704730B54D78C5
:1034B0000A78002D48F68F7430F8225048F28003C5
:1034C00012D06D0607D530F82250254048F2C004CE
:1034D000254320F822500A7830F8221048F6BF74AD
:1034E000214081F0300111E06D0407D530F8225001
:1034F00025404CF28004254320F822500A7830F809
:1035000022104BF68F74214081F44051194320F86A
:103510002210002030BD10B50A7848F2800352B165
:103520004978002930F8221010D048F6BF742140A5
:1035300081F010010FE001884BF6BF72114081F459
:10354000805181F010011943018007E04BF68F7420
:10355000214081F48051194320F82210002010BD31
:103560002DE9F0410D460646896995F801C0002312
:10357000AA7A022728690C4648F28008BCF1010F9C
:1035800005D0814252D90446081AA8614FE0814211
:1035900003D90446081AA86100E0AB617AB1287823
:1035A00036F820104906B6F8501007EBC000084462
:1035B00006EB4000C0F8004412D52A8911E0A3B2FE
:1035C000AA883046696900F0C8F8B6F85000297832
:1035D00007EBC101084406EB4000C0F800441CE0C2
:1035E000EA88A3B23046696900F0B7F8687848F60F
:1035F0008F7110B1012807D00FE0287836F820200D
:103600000A4048F2C00105E0287836F820200A4038
:103610004CF280010A4326F82020297836F8210050
:1036200048F6BF72104080F0300067E0AB610623BF
:103630004FF6FF701AB1BCF1000F1BD056E0B6F880
:1036400050102A783E2C03EBC202114406EB4102D3
:1036500002F5806239D9C4F34F11E30632D000BFBE
:1036600000EA812040F4004002E000BF00EA81202F
:1036700010603BE0B6F850102A783E2C07EBC202EF
:10368000114406EB410202F580620BD9C4F34F11DD
:103690005FEAC46C01D1491E89B200EA812141F47C
:1036A000004108E0C4F34F015FEAC47C01D0491C2B
:1036B00089B200EA8121116069780029BFD001290F
:1036C0000AD013E0491E89B2CAE7C4F34F01E307E9
:1036D000CCD0491C89B2C9E7B6F85000297807EB6D
:1036E000C101084406EB4000C0F80044297836F8D0
:1036F00021004BF68F72104080F4405040EA0800E1
:1037000026F821000020BDE8F08130F8401F41F488
:103710003D410180002070470148FDF733B80000AB
:10372000D4060020B0F84400704700005B1C00EB9A
:1037300042005B0800F5806006D000BF30F8042B23
:1037400021F8022B5B1EF9D170470020704711B998
:103750008021A0F84C100020704710B55B1C00EBD6
:1037600042005B0800F5806009D011F8012B5B1E58
:1037700011F8014B42EA042220F8042BF5D110BDC8
:10378000FEE702E008C8121F08C1002AFAD17047FC
:103790007047002001E001C1121F002AFBD17047D1
:1037A0001FB50AA410281ECC8DE81E000B4A6946DE
:1037B00002D23023137005E001EB101300F00F006C
:1037C0001B781370085C50701FBD0000303132331D
:1037D0003435363738394142434445467402002077
:1037E0002DE9F041054600244FF400570B4E11E03F
:1037F000002239463046FCF70EFE6420FCF71CFD23
:10380000012239463046FCF706FE6420FCF714FD21
:10381000641CE4B2AC42EBD3BDE8F081001001407F
:10382000FCF70CFEFEF7FFFCFEF71CFAFEF764FA4D
:10383000DFF86C9299494846C9F800104FF4E1311D
:103840000025C0E901150C21C9F80C50C0E904514C
:10385000C9F81850C9F81C50FDF7E5FF00B1FEE7A4
:10386000FEF76AFA8F4E012211463046FCF7D3FD6F
:103870000A20FCF7E1FC002201213046FCF7CBFDD9
:103880003220FCF7D9FC0120FFF7AAFFFEF706F96A
:103890000120FFF7A5FF64233F2283498048FEF7FC
:1038A0005BF83F218048FCF7AFFC0120FFF798FF51
:1038B0007D49012208397A48FEF718F8DFF8E881D7
:1038C0004FF0010A08F13F08A8F15A0404F1070B70
:1038D000734926204A31FEF70FF9002870D170484D
:1038E0004A30FEF7AEF800286AD165700920E5700D
:1038F000A0706B4984F804A0257028464A315A46C6
:103900002378D75C11F803C0674500D001205B1C09
:10391000DBB22370042BF3D327466070F0B35FEA69
:103920000A004AD0FD703D713D7038780B5C13542D
:10393000401CC0B238700428F7D33D70584839781D
:103940004A30405CFFF72CFF5549B87840310A787F
:1039500008F80020401CC0B2497808F80010401C4C
:10396000B8703878401CC0B238700428E6D34E498D
:10397000642312223F314A48FDF7EEFF4A481221E4
:103980003F30FCF741FC484A87F805A050463D709F
:10399000103A397808EB01035B7A00E00DE012F889
:1039A00001C0634500D00020491CC9B23970082904
:1039B000EFD378710120FFF713FF0120FFF710FF0D
:1039C0006079012817D165712570012211463046B2
:1039D000FCF721FD3220FCF72FFC002201213046AC
:1039E000FCF719FD6420FCF727FC2078401CC0B2CE
:1039F00020700A28E9D3B9F82E00E8B90120FFF7B2
:103A0000EFFE294808380078A07131280ED1012036
:103A1000FFF7E6FE2449642312223F312048FDF7D8
:103A20009BFF214812213F30FCF7EEFB1E4901228B
:103A300008391B48FDF75AFF02213046FCF7E6FC27
:103A4000B8B91949642312223F311548FDF784FFA4
:103A5000154812213F30FCF7D7FB0120FFF7C0FECD
:103A600002213046FCF7D2FC0028F9D06420FCF794
:103A7000E3FBE078401C10F0FF00E0700AD184F80E
:103A800004A02570594620780D54401CC0B2207007
:103A90000428F8D30120FCF7CFFB19E700380140D8
:103AA0003402002000080140270000200000000030
:103AB00000000000010203040607080900000000DE
:103AC00001020304E43A000800000020DC010000C9
:103AD0006C010008F43B0008DC0100201C0F000012
:103AE0009237000891B4A24A048009394335354120
:103AF000314235384053544D333246313033204D06
:103B0000696661726520524335323220524649441B
:103B10002043617264207265616465722031332EC6
:103B20003536204D487A20666F72204B45494C202F
:103B300048414C0D235E49443A203001140DCD011B
:103B40001B08C9041AC5041AF104811319291B089A
:103B500049041A55041A7D041AA90413F9281B08EC
:103B600025081704030904120114020202164083F7
:103B7000044057660201020301130A0632022A407A
:103B80000F1C0902431B111CC03209D31B01020B7D
:103B90001305241610010524011009010424020252
:103BA000052406170107058203081C100904513279
:103BB0000A1D07050102432C070581070938442A1D
:103BC00040072A8107112B0907440A2204440A16D8
:103BD000FF4413D5261B08430413B12742081A7F5C
:103BE0000C1A01041A1504C12ABD2419041AC904A7
:043BF0005AA51C00B6
:04000005080000ED02
:00000001FF
